S01900006275696C642F7563626173652F6D61696E2E7372656385
S11300000C94B3010C94D2010C94D2010C94D2013F
S11300100C94D2010C94D2010C94D2010C94D20110
S11300200C94D2010C94BA1E0C94D2010C94D201FB
S11300300C94D2010C94D2010C94D2010C94D201F0
S11300400C94230E0C94050E0C940F0E0C94190EA4
S11300500C94EE0D0C94D2010C94D2010C94D201A8
S11300600C9441240C942A210C94D2010C94CD219B
S11300700C94D2010C94D2010C94D2010C94D201B0
S11300800C94D2010C94D2010C94D2010C94D201A0
S11300900C940D040C94D2010C941F040C94D20102
S11300A00C94D2010C94D2010C94D2010C94D20180
S11300B00C94D2010C94D2010C94D2010C94D20170
S11300C00C94D2010C94D2010C94D2010C94D20160
S11300D00C94D2010C94D2010C94D2010C94D20150
S11300E00C94D2010C94151E0C94D2010C94431E52
S11300F00C94711E0C94B91D0C94D2010C948B1D9C
S11301000C94E71D0C942A1D0C94A80D0C94E40D7A
S11301100C94970D0C94D2010C94D2010C94D2013E
S113012012363736AB36B836C836CC365E37A337D8
S1130130BA37EB3728387E38FF3B0136203C2E3C5B
S1130140D13C073D193D4C3DA03DAF3DB73DBB3DC6
S1130150BF3DD83DED3D183EAB3E1B3E0836843EC8
S113016000002110422063308440A550C660E7702F
S1130170088129914AA16BB18CC1ADD1CEE1EFF1D7
S11301803112100273325222B5529442F772D6627F
S1130190399318837BB35AA3BDD39CC3FFF3DEE327
S11301A06224433420040114E664C774A4448554CF
S11301B06AA54BB528850995EEE5CFF5ACC58DD577
S11301C05336722611163006D776F6669556B4461F
S11301D05BB77AA719973887DFF7FEE79DD7BCC7C7
S11301E0C448E5588668A77840086118022823386F
S11301F0CCC9EDD98EE9AFF9488969990AA92BB917
S1130200F55AD44AB77A966A711A500A333A122ABE
S1130210FDDBDCCBBFFB9EEB799B588B3BBB1AAB66
S1130220A66C877CE44CC55C222C033C600C411C0E
S1130230AEED8FFDECCDCDDD2AAD0BBD688D499DB6
S1130240977EB66ED55EF44E133E322E511E700E5E
S11302509FFFBEEFDDDFFCCF1BBF3AAF599F788F06
S11302608891A981CAB1EBA10CD12DC14EF16FE1E6
S11302708010A100C230E32004502540467067601E
S1130280B9839893FBA3DAB33DC31CD37FE35EF336
S1130290B1029012F322D23235421452776256726E
S11302A0EAB5CBA5A89589856EF54FE52CD50DC586
S11302B0E234C324A01481046674476424540544BE
S11302C0DBA7FAB79987B8975FE77EF71DC73CD7D6
S11302D0D326F2369106B01657667676154634560E
S11302E04CD96DC90EF92FE9C899E9898AB9ABA926
S11302F04458654806782768C018E1088238A3285E
S11303007DCB5CDB3FEB1EFBF98BD89BBBAB9ABB75
S1130310754A545A376A167AF10AD01AB32A923AAD
S11303202EFD0FED6CDD4DCDAABD8BADE89DC98DC5
S1130330267C076C645C454CA23C832CE01CC10CFD
S11303401FEF3EFF5DCF7CDF9BAFBABFD98FF89F15
S1130350176E367E554E745E932EB23ED10EF01E4D
S113036000020E060C0411241FBECFEFD1E4DEBF41
S1130370CDBF13E0A0E0B2E0E2E6FAEA00E00BBF92
S113038002C007900D92A635B107D9F715E3A6E58B
S1130390B3E001C01D92A43BB107E1F70E94E13E26
S11303A00C9430550C9400008FB7F8949927089555
S11303B08FBF0895882319F08CB5806802C08CB56E
S11303C08F778CBD8FEF8093350208950F931F9321
S11303D0CF93DF938FB7F89499270091320F109140
S11303E0330F60911A0F70911B0FC091A710D09119
S11303F0A8104091A5105091A6109E01265F3F4F72
S11304004217530708F49A018FBFDB01AC0FBD1FDD
S1130410F801EC0FFD1F2150304015C001151105E6
S113042031F080818EBD0DB407FEFDCF04C01EBC2B
S11304300DB407FEFDCF8EB56115710509F08C93DF
S1130440219611963196C217D30740F381E00E949A
S1130450DA019FB7F8940115110531F00C0F1D1F37
S1130460F80180818EBD01C01EBCD093A810C0933A
S1130470A710892F99278FBF80E090E0DF91CF915B
S11304801F910F910895282F9FB7F894E82FFF2705
S1130490E552F24F80818F3F81F4E0916935E21794
S11304A071F40BC02093CC2804C0FF27E552F24F0F
S11304B020832093693520E007C025E005C08091A2
S11304C0CC288F3F91F7EECF892F99278FBF822FAA
S11304D0992708952FB7F89433275093A610409383
S11304E0A5109093330F8093320F70931B0F60937A
S11304F01A0F1092A8101092A7102FBF452B29F0A5
S11305008EB50E94E6019927089580E00E94430277
S113051080E090E00895E0E6F1E06927660FF11DC0
S1130520E60FF11DC895982F802D3196C89590251A
S11305300895982F289880E020E030E0772707C0BE
S11305409EBD0DB407FEFDCF8EB52F5F3F4F26171E
S11305503707B4F3289A99270895AF92BF92CF92A0
S1130560DF92EF92FF920F931F935A016B01209138
S113057091103091921040919310509194107A01FF
S113058000271127E092CE0DE32EF42E052F11271C
S1130590E092CF0D2093D00D882321F061E086E016
S11305A00E9499022898A50160E070E08DEC9DE01E
S11305B00E946A0280E090E01F910F91FF90EF90FB
S11305C0DF90CF90BF90AF9008950F931F93E2E018
S11305D0E093CD0D609391107093921080939310DB
S11305E09093941050935E1040935D1000939C1070
S11305F010939D1020939E1030939F1044E050E080
S113060060E070E081E00E94AD0299271F910F9194
S1130610089598ED9093CD0D9927AA27BB27DC0167
S1130620992788278093911090939210A093931008
S1130630B093941044E050E060E070E081E00E94E8
S1130640AD0299270895882319F08CB5806402C0FF
S11306508CB58F7B8CBD8FEF8093350208951F93EB
S1130660982F8FB7F894182F809156038230C1F5D4
S1130670809138028917A1F58091360220E030E09C
S11306808F3F11F421E030E0232BD9F48F3F19F48C
S11306902FEF30E00EC0282F3327F901E85EF04F2A
S11306A08081809336028F3F11F4809337028FEF5D
S11306B080832093380281E0809356030E94430292
S11306C005C08FEF809338021092560380E00E9499
S11306D023038FEF809335021FBF80E090E003C0B7
S11306E01FBF81E090E01F91089580E00E942F03D6
S11306F09927089521E030E002C0220F331F8A9524
S1130700E2F78091970F822B8093970FEBE6F0E04E
S11307108081282B2083E8E6F0E08081816080835B
S113072080E090E0089521E030E002C0220F331F02
S11307308A95E2F7922F90958091970F8923809361
S1130740970FEBE6F0E08081282B2083E8E6F0E0C9
S113075080818160808380E090E0089580913902F7
S113076090913A02009761F08B969093000F8093DA
S1130770FF0E02969093CB108093CA1082E001C0C2
S113078081E080933B0F8091310F833021F481E02D
S11307908093310F089581E08093310F86E00E94A9
S11307A04302089580936C352FB7F89433278093D0
S11307B0C600E0ECF0E08081806480832FBF089560
S11307C0982F8D57823010F0892F08C080E2892736
S11307D08093950F82E0809399108DE70E94D20355
S11307E008951F93182F0E94E003612F8091710FC9
S11307F09091720F0E948B029093720F8093710FED
S11308001F9108950E94F103089581E08093980F49
S11308108091710F0E94E00308951F920F920FB60A
S11308200F9211248F938091C80087FF02C080919A
S1130830CE008F910F900FBE0F901F901895789453
S11308401F920F920FB60F9211240F900FBE0F90AC
S11308501F9018958FB7F894282F33278091500252
S1130860813021F02FBF80E090E0089582E08093F2
S113087050021092340F2FBF81E090E00895382F7A
S1130880809150028230C9F42091340FE22FFF2767
S1130890CF01830F911D4C9794F583E08093500210
S11308A02093850F2F5F2093340F809151029091F4
S11308B05202E80FF91F64871CC0809150028330F4
S11308C009F58091340F830F912D911D4D97BCF440
S11308D082E080935002E0915102F09152023C96E2
S11308E08091850FE80FF11D6295607F8081860FEE
S11308F080838091340F380F3093340F04C084E028
S1130900809350028FEF992787FD909508951F9348
S113091080915002813009F43CC08091340FE09101
S11309205102F091520280831FB7F89480917403AE
S113093090917503892B71F4809151029091520228
S1130940909375038093740382E080933A0F8DE152
S11309500E9443022091510230915202215D3F4F87
S113096088E2293B380710F02BED30E13093520236
S113097020935102809174039091750328173907CD
S113098011F485E001C081E080935002812F992702
S11309908FBF1F9108952F923F924F925F926F9253
S11309A07F928F929F92AF92BF92CF92DF92EF92FB
S11309B0FF920F931F93CF93DF93CDB7DEB7A89722
S11309C00FB6F894DEBF0FBECDBF80912B0F909170
S11309D02C0FA0912D0FB0912E0F2091230F309149
S11309E0240F4091250F5091260F821B930BA40BCB
S11309F0B50B89839A83AB83BC831D821E821F82BD
S1130A00188689809A80AB80BC80CC24DD24EE24B7
S1130A1002E0282D392D4A2D5B2D6C2D7D2D8E2D38
S1130A2090E00E94A54229873A874B875C876D87AF
S1130A307E878F87988B0E94A542298B3A8B4B8B9C
S1130A405C8B6D8B7E8B8F8B988F8984820E81E07B
S1130A503985831608F080E09A849A89990E21E0FA
S1130A60EA859E1608F020E0890D91E0891508F0CA
S1130A7090E0292B982EAB84FB89AF0E31E08B8557
S1130A80A81608F030E0822F8A0D91E08A1508F04C
S1130A9090E0392BA82EBC849C89B90E21E0EC850A
S1130AA0BE1608F020E0832F8B0D91E08B1508F023
S1130AB090E0292BB82ECD84FD89CF0E31E08D85B1
S1130AC0C81608F030E0822F8C0D91E08C1508F0E8
S1130AD090E0392BC82EDE849E89D90E21E0EE8564
S1130AE0DE1608F020E0832F8D0D91E08D1508F0BF
S1130AF090E0292BD82EEF84FF89EF0E31E08F850B
S1130B00E81608F030E0822F8E0D91E08E1508F083
S1130B1090E0932BE82EF888E88DFE0E9F0DF92EB9
S1130B2002E0282D392D4A2D5B2D6C2D7D2D0E9440
S1130B30A542298F3A8F4B8F5C8F6D8F7E8F8F8F5D
S1130B4098A3F22FF80DF9A381E0F81508F080E0DE
S1130B503A8D390D3AA321E0391508F020E0EAA1D5
S1130B608E0F91E08E1708F090E0292B8AA33B8D1D
S1130B703A0D3BA331E08BA18A1508F030E08BA13C
S1130B80820F91E0EBA18E1708F090E0392B8BA334
S1130B90FC8DFB0DFCA321E0FB1508F020E08CA1EB
S1130BA0830F91E0ECA18E1708F090E0292B8CA321
S1130BB0FD8DFC0DFDA331E0FC1508F030E08DA1A6
S1130BC0820F91E0EDA18E1708F090E0392B8DA3F0
S1130BD0FE8DFD0DFEA321E0FD1508F020E08EA1A1
S1130BE0830F91E0EEA18E1708F090E0292B8EA3DD
S1130BF0FF8DFE0DFFA331E0FE1508F030E08FA15C
S1130C00820F91E0EFA18E1708F090E0932BF8A1EA
S1130C10FF0D9F0F2091270F3091280F4091290F2E
S1130C2050912A0FE0901F0FF090200F0091210F98
S1130C301091220F2E193F09400B510B19012A0163
S1130C406624772488249924A22EB32CC42CD52C72
S1130C50E62CF72C082D192D29A13AA14BA15CA152
S1130C606DA17EA10E94A04DA22EB32EC42ED52E1E
S1130C70C601B501A8960FB6F894DEBF0FBECDBF6E
S1130C80DF91CF911F910F91FF90EF90DF90CF9064
S1130C90BF90AF909F908F907F906F905F904F9098
S1130CA03F902F9008952F923F924F925F926F92B0
S1130CB07F928F929F92AF92BF92CF92DF92EF92E8
S1130CC0FF920F931F93CF93DF93CDB7DEB7E197D6
S1130CD00FB6F894DEBF0FBECDBF442309F069C040
S1130CE069837A838B839C831D821E821F8218866C
S1130CF00E94CB041B012C016624772488249924A8
S1130D00A62EB32CC42CD52CE62CF72C082D192D8B
S1130D1029813A814B815C8160E070E080E090E061
S1130D200E942441E4E6AE2EBB24CC24DD240E94A0
S1130D30A04D222E332E442E552E80911F0F9091BC
S1130D40200FA091210FB091220F2091230F3091F9
S1130D50240F4091250F5091260F821B930BA40B57
S1130D60B50B5C016D01222D280FE1E0221508F07E
S1130D70E0E0332D3B0DA1E0331508F0A0E0E30FD4
S1130D80F1E0E31708F0F0E0AF2B3E2F442D4C0DBB
S1130D90B1E0441508F0B0E0EA2FE40FF1E0E41705
S1130DA008F0F0E0BF2B4E2F552D5D0DEB2FE50F16
S1130DB06FC169877A878B879C871D861E861F86ED
S1130DC0188A89849A84AB84BC84CC24DD24EE24E0
S1130DD002E0282D392D4A2D5B2D6C2D7D2D8E2D75
S1130DE090E00E94A542298B3A8B4B8B5C8B6D8BD8
S1130DF07E8B8F8B988F0E94A542298F3A8F4B8FC1
S1130E005C8F6D8F7E8F8F8F98A38988820E81E08F
S1130E103989831608F080E09A889A8D990E21E02A
S1130E20EA899E1608F020E0890D91E0891508F002
S1130E3090E0292B982EAB88FB8DAF0E31E08B8987
S1130E40A81608F030E0822F8A0D91E08A1508F088
S1130E5090E0392BA82EBC889C8DB90E21E0EC893A
S1130E60BE1608F020E0832F8B0D91E08B1508F05F
S1130E7090E0292BB82ECD88FD8DCF0E31E08D89E1
S1130E80C81608F030E0822F8C0D91E08C1508F024
S1130E9090E0392BC82EDE889E8DD90E21E0EE8994
S1130EA0DE1608F020E0832F8D0D91E08D1508F0FB
S1130EB090E0292BD82EEF88FF8DEF0E31E08F893B
S1130EC0E81608F030E0822F8E0D91E08E1508F0C0
S1130ED090E0932BE82EF88CE8A1FE0E9F0DF92EDE
S1130EE002E0282D392D4A2D5B2D6C2D7D2D0E947D
S1130EF0A54229A33AA34BA35CA36DA37EA38FA30E
S1130F0098A7F22FF80DF9A781E0F81508F080E012
S1130F103AA1390D3AA721E0391508F020E0EAA5F5
S1130F208E0F91E08E1708F090E0292B8AA73BA141
S1130F303A0D3BA731E08BA58A1508F030E08BA56C
S1130F40820F91E0EBA58E1708F090E0392B8BA768
S1130F50FCA1FB0DFCA721E0FB1508F020E08CA50B
S1130F60830F91E0ECA58E1708F090E0292B8CA755
S1130F70FDA1FC0DFDA731E0FC1508F030E08DA5C6
S1130F80820F91E0EDA58E1708F090E0392B8DA724
S1130F90FEA1FD0DFEA721E0FD1508F020E08EA5C1
S1130FA0830F91E0EEA58E1708F090E0292B8EA711
S1130FB0FFA1FE0DFFA731E0FE1508F030E08FA57C
S1130FC0820F91E0EFA58E1708F090E0392B8FA7E0
S1130FD0F8A5FF0D3F0F39AB38AB0E94CB041B01C2
S1130FE02C016624772488249924A62EB32CC42C9F
S1130FF0D52CE62CF72C082D192D29A53AA54BA59F
S11310005CA56DA57EA58FA599A90E94A04D222E51
S1131010332E442E552E80911F0F9091200FA091B6
S1131020210FB091220F2091230F3091240F409172
S1131030250F5091260F821B930BA40BB50B5C015B
S11310406D01222D281BE1E0221608F0E0E0332D8B
S11310503B19A1E0331608F0A0E0F32FFE1BEF2F9D
S1131060F1E03E1708F0F0E0AF2B3E2F442D4C1971
S1131070B1E0441608F0B0E0E42FEA1BF1E04E17AB
S113108008F0F0E0BF2B4E2F552D5D19E52FEB1B1B
S11310905E2FCA01B901E1960FB6F894DEBF0FBE08
S11310A0CDBFDF91CF911F910F91FF90EF90DF9013
S11310B0CF90BF90AF909F908F907F906F905F90F4
S11310C04F903F902F9008954FB7F8945527209153
S11310D0E100622F2091E200722F2091E300822F21
S11310E02091E400922F4FBF08950F931F930FB7E1
S11310F0F89410915A100E9464089B01AC018091ED
S1131100E00083FF05C01F5F0E9464089B01AC01DF
S1131110802F99278FBF612F772788279927AAE1E6
S1131120660F771F881F991FAA95D1F7F6E0569589
S1131130479537952795FA95D1F7622B732B842B16
S1131140952B1F910F910895EF920F931F93AE2D3E
S113115099E0899FF0011124E05AFF4E40835183A6
S1131160628373830483158326833783A170808508
S11311708E7F8A2B8260808783E10E9443021F91C5
S11311800F91EF900895AF92BF92CF92DF92EF92BA
S1131190FF920F931F93F82E5A016B010E9475085A
S11311A0AB01BC01B1E0EB2E960185018F2D0E94AD
S11311B0A4081F910F91FF90EF90DF90CF90BF9004
S11311C0AF900895982F8FB7F894282F3327422F84
S11311D080916103882399F441E0409361039093E3
S11311E0A9102FBF80916203882331F440936403D4
S11311F084E10E94430208C04093630305C08091C8
S1131200A910891721F42FBF80E090E00895E92FF9
S1131210FF27E25EF04F80818F3F89F4E0914C021A
S1131220E91789F40CC090934B0204C0FF27E25ED7
S1131230F04F908390934C0280E090E002C085E0F0
S113124090E04FBF089580914B028F3F79F7EBCF29
S1131250282F882311F080E001C080E29927AA2773
S1131260BB27481759076A077B0718F086E090E008
S11312700895822F9927FC0133E0EE0FFF1F3A9562
S1131280E1F7E81BF90BE658FC4F8081833019F431
S113129089E090E00895882319F085E090E00895AE
S11312A083E080834183528363837483222311F018
S11312B081E003C080E00E94E208992708958F929C
S11312C09F92AF92BF92CF92DF92EF92FF920F93D1
S11312D01F93CF93DF936B017C01BA01A9015801DD
S11312E00091140FCFECDFE0882410E0992420E073
S11312F030E0F9018B85882321F4122F81E0982EA8
S113130012C088819981AA81BB818C159D05AE0587
S1131310BF0589F0992039F48A85902F981B891686
S113132010F4892E122F2F5F3F4F2C962A3031054F
S113133001F7E12FFF278E2F9927FC01EE0FFF1FE6
S1131340E80FF91FEE0FFF1FEE0FFF1FE153F04FE1
S1131350C082D182E282F382448355836683778399
S1131360B186A086802F8F5F8093140F828781E0DF
S11313708387DF91CF911F910F91FF90EF90DF90C2
S1131380CF90BF90AF909F908F900895AF92BF92EF
S1131390CF92DF92EF92FF920F931F937B018C0108
S11313A0EAE9F3E09FEFA92E9FEFB92E9FEFC92E34
S11313B09FEFD92E80819181A281B3818E159F05E3
S11313C0A007B10748F0281739074A075B0720F040
S11313D0A082B182C282D382EB5FFE4F8DE0EC3CEF
S11313E0F80741F71F910F91FF90EF90DF90CF9096
S11313F0BF90AF900895CF92DF92EF92FF920F9338
S11314001F931092CB286093C5287093C6288093AD
S1131410C7289093C8282093A6353093A7354093C6
S1131420A8355093A935E092A235F092A3350093E4
S1131430A4351093A535D092AB35C092AA35CD28EA
S113144019F41092AC3503C081E08093AC3587E188
S11314500E9443021F910F91FF90EF90DF90CF9075
S1131460089560E07AEF80E090E00895CF93DF93F1
S1131470982F8FB7F894C82FDD272C2F8091600305
S1131480882361F481E08093600390934A028FE0A3
S11314900E944302CFBF80E090E021C0E92FFF27E4
S11314A0E45FF64D80818F3F89F4E0914902E917AA
S11314B089F40CC09093480204C0FF27E45FF64D02
S11314C090839093490280E090E002C085E090E030
S11314D02FBF05C0809148028F3F79F7EBCFDF9192
S11314E0CF910895AF92BF92CF92DF92EF92FF9285
S11314F00F931F930E9475087B018C012091910F1B
S11315003091920F4091930F5091940F8091810FDD
S11315109091820FA091830FB091840F820F931F3B
S1131520A41FB51FE216F3060407150730F082174F
S11315309307A407B50758F005C082179307A407BB
S1131540B507E0F5E816F9060A071B07B8F59C018C
S1131550AD012E193F09400B510B213060E03607D5
S113156060E0460762E0560768F180E090E0A0E0A2
S1131570B2E0E80EF91E0A1F1B1FE092910FF092D1
S1131580920F0093930F1093940F80E090E0A0E0EB
S1131590BEEFE80EF91E0A1F1B1F205030404040CA
S11315A052402093810F3093820F4093830F5093C6
S11315B0840F20E030E040E052E014C020E030E04E
S11315C040E050E08093910F9093920FA093930F7B
S11315D0B093940F1092810F1092820F1092830F88
S11315E01092840F59016A0136E0AA0CBB1CCC1C72
S11315F0DD1C3A95D1F726E0EE0CFF1C001F111FED
S11316002A95D1F70E9464089B01AC012E5F3F4FDD
S11316104F4F5F4FDA01C9018E199F09A00BB10B1F
S11316208A159B05AC05BD0530F4A80197012A0D68
S11316303B1D4C1D5D1D5093F4004093F30030930B
S1131640F2002093F10082E08093E0008091DF00BB
S113165082608093DF008FEF809335021F910F919A
S1131660FF90EF90DF90CF90BF90AF9008950F93CD
S11316701F930FB7F89411276093910F7093920FF3
S11316808093930F9093940F2093810F3093820F44
S11316904093830F5093840F0E94720A0FBF1F91CF
S11316A00F910895EF92FF920F931F937B018C018A
S11316B0E3EDFFE080819181A281B3818E159F05C6
S11316C0A007B10730F0281739074A075B0708F06D
S11316D017823C9680E1EB34F80761F71F910F9174
S11316E0FF90EF900895FC0182819927982F882715
S11316F021813327822B932B45E0969587954A9534
S1131700E1F7817090700895FC0140E050E082811F
S11317109927982F882721813327822B932B87742D
S11317209C7C8154984811F441E050E0CA0108952A
S1131730FC0187819927982F882726813327822BBC
S1131740932B0895EF92FF920F931F93CF93DF9300
S11317507B018C018FB7F894C82FDD270E946408A1
S11317609B01AC01C801B701623071058105910587
S113177020F462E070E080E090E0260F371F481FFD
S1131780591FDA01C901B093F800A093F7009093B0
S1131790F6002093F50081E08093E0008091DF0063
S11317A081608093DF008FEF80933502CFBFDF919C
S11317B0CF911F910F91FF90EF900895FB0121E0CD
S11317C030E002C0220F331F8A95E2F7209584A5EA
S11317D0822384A7089520E030E0FC018181877092
S11317E0823011F421E030E0C9010895CF93DF93F2
S11317F0EC010E94730B8823D1F0CE010E94840B6C
S11318008823A9F0CE010E94980B2FB7F8943327B0
S113181040914102509142022FBF20E08417950766
S113182009F021E081E02827822F992702C080E077
S113183090E0DF91CF910895FB0121E030E002C0F8
S1131840220F331F8A95E2F784A5822399270895EE
S1131850FC0181859927982F882720853327822B9F
S1131860932B0895EF92FF920F931F937C018FB7F0
S1131870F894992700919710109198100F5E1E4FBD
S11318801093981000939710015111408FBF8CE072
S11318900E944302C801B7010E94A05444961F91BC
S11318A00F91FF90EF900895FC01655F60830895A8
S11318B008952F923F924F925F926F927F928F92F0
S11318C09F92AF92BF92CF92DF92EF92FF920F93CB
S11318D01F93CF93DF93CDB7DEB729970FB6F89454
S11318E0DEBF0FBECDBF6FB76983F8942090730F2E
S11318F03090740F4090750F5090760F66247724C3
S113190088240EE4A02E13E8B12ECC24DD24EE248A
S1131910FF2400E010E0222D332D442D552D662D9B
S1131920772D882D90E00E9424412A833B834C83A9
S11319305D836E837F8388879987822E932EA42E5E
S1131940B52E2401350100E20E942242A22EB32EBC
S1131950C42ED52EA3019201569547953795279508
S11319602A0D3B1D4C1D5D1D57FF05C05F772F5F82
S11319703F4F4F4F5F4F2093730F3093740F40933B
S1131980750F5093760FE9818E2F99278FBFCA0167
S1131990B90129960FB6F894DEBF0FBECDBFDF9113
S11319A0CF911F910F91FF90EF90DF90CF90BF9058
S11319B0AF909F908F907F906F905F904F903F90EB
S11319C02F9008956F927F928F929F92AF92BF92C1
S11319D0CF92DF92EF92FF920F931F93CF93DF93F7
S11319E0FC01808182513C96DF01A80FB11D3C9718
S11319F0BD016F5F7F4FEB01AA80BB24CC24DD24A3
S1131A00DC2CCB2CBA2CAA24ED01298133274427C2
S1131A105527522F442733272227EB018981992701
S1131A20AA27BB27DC0199278827282B392B4A2B87
S1131A305B2B8B819927AA27BB27282B392B4A2B71
S1131A405B2BA22AB32AC42AD52A36E0D594C7949C
S1131A50B794A7943A95D1F7E0A4F1A402A513A5ED
S1131A600E9464083B014C010E947508E618F708BF
S1131A700809190926E015950795F794E7942A951E
S1131A80D1F7A60EB71EC81ED91EEA0CFB1C0C1DEE
S1131A901D1DC801B701DF91CF911F910F91FF90D8
S1131AA0EF90DF90CF90BF90AF909F908F907F90FA
S1131AB06F9008958091C610882321F48091CC10F2
S1131AC0882319F089E090E008958091C1008F7B0C
S1131AD08093C1008091C1008F778093C1001092E0
S1131AE090101092350F8091C10088608093C100DE
S1131AF08091C10080618093C1008FEF8093350293
S1131B008091C10080688093C1008091C00080648E
S1131B108093C0008091C10080648093C10081E003
S1131B208093CC100E94AE0380E090E008951F9251
S1131B300F920FB60F9211248F9380915A108F5FDA
S1131B4080935A108F910F900FBE0F901F9018958D
S1131B501F920F920FB60F9211242F933F934F931E
S1131B605F936F937F938F939F93AF93BF93EF9301
S1131B70FF938091DF008D7F8093DF008FEF809350
S1131B8035028091810F9091820FA091830FB091C3
S1131B90840F0097A105B10521F482E10E9443025C
S1131BA002C00E94720AFF91EF91BF91AF919F9181
S1131BB08F917F916F915F914F913F912F910F90F2
S1131BC00FBE0F901F9018951F920F920FB60F9291
S1131BD011240F900FBE0F901F9018951F920F9213
S1131BE00FB60F9211248F939F9380917E0F909143
S1131BF07F0F019690937F0F80937E0F9F918F911B
S1131C000F900FBE0F901F9018951F920F920FB652
S1131C100F9211240F900FBE0F901F9018951F92D2
S1131C200F920FB60F9211240F900FBE0F901F90BA
S1131C3018951F920F920FB60F9211240F900FBE9A
S1131C400F901F9018951F920F920FB60F921124A8
S1131C500F900FBE0F901F9018952F923F924F92A6
S1131C605F926F927F928F929F92AF92BF92CF9228
S1131C70DF92EF92FF920F931F93CF93DF932C0188
S1131C808091110F882309F010C180919D0F853038
S1131C9009F00BC18091BA10882309F006C1B20182
S1131CA082E00E941C0C882311F490E003C0F2012E
S1131CB096A59F7080915F10981729F090935F10FC
S1131CC0906C90934501C2010E94840B8823A9F073
S1131CD08091460199278F71907020910B29409132
S1131CE0D70D240F312D311D43E0359527954A95A5
S1131CF0E1F7281739070CF4D8C089E08093420132
S1131D00B20184E00E941C0C882319F4C0E0D0E0E6
S1131D1006C0D2018C918550E201C80FD11DF20199
S1131D2080819927282F80938001809141018F71B0
S1131D30893021F086E080934201B7C012010894F3
S1131D40211C311C0EEFF02EF20E0FB7F894112760
S1131D500E9464083B014C0182E0809342010FBF62
S1131D608BE090E0A0E0B0E0680E791E8A1E9B1E16
S1131D706F2D7727209709F47EC02881E9808A8116
S1131D80AB809927AA27BB27BA2FA92F982F88277A
S1131D90332744275527522F442733272227FF244C
S1131DA0002711278701FF24EE242E293F29402BE9
S1131DB0512BBB24CC24DD242A293B294C295D2921
S1131DC0822B932BA42BB52B86199709A809B90943
S1131DD08B83292F3A2F4B2F55272A839D01442784
S1131DE0552729838B2F9927AA27BB278883AB01E3
S1131DF0B10181E891E00E94205586E08093420180
S1131E002881E9808A81AB809927AA27BB27BA2F2A
S1131E10A92F982F8827332744275527522F442743
S1131E2033272227FF24002711278701FF24EE24CC
S1131E302E293F29402B512BBB24CC24DD242A29D5
S1131E403B294C295D29822B932BA42BB52B860D82
S1131E50971DA81DB91D8B83292F3A2F4B2F55276A
S1131E602A839D014427552729838B2F9927AA2745
S1131E70BB27888309C0AB01B10181E891E00E94CE
S1131E80205586E080934201F20184A5826084A7F4
S1131E9060A671A682A693A686E080939D0F84E037
S1131EA08093110F80E090E002C085E090E0DF9124
S1131EB0CF911F910F91FF90EF90DF90CF90BF9043
S1131EC0AF909F908F907F906F905F904F903F90D6
S1131ED02F9008951F93CF93DF93182FEA010E9448
S1131EE03F04282F87FD0FC0809151029091520228
S1131EF00C96332727FD3095412F5527BE01820FBD
S1131F00931F0E942055DF91CF911F9108951F9335
S1131F10CF93DF93EC0120E030E0FC01422F81916C
S1131F20882329F02F5F3F4F20313105B9F7142F53
S1131F30403108F01FE06FE0812F8F5F0E943F0463
S1131F4087FD19C0282F332727FD3095E0915102D2
S1131F50F0915202E20FF31F10551487105B809129
S1131F60510290915202820F931F412F5527BE01B7
S1131F700D960E942055DF91CF911F91089521E085
S1131F802093960F209388100E94A20B0895CF935C
S1131F90DF938FB7F894C82FDD279C2F80914D02D3
S1131FA08130A9F480916103813021F481E10E94A0
S1131FB0430209C0823059F48091A91080934D02E4
S1131FC083E080936103CFBF80E090E003C09FBFB4
S1131FD081E090E0DF91CF910895AF92BF92CF92CC
S1131FE0DF92EF92FF920F931F937B018C018091FC
S1131FF0690390916A03892B09F080C040E0E416DC
S113200040E2F40640E0040740E0140718F086E0DC
S113201090E096C0E0E0F0E0AAE9B3E02D913D91B4
S11320204D915C9113972F3F9FEF39079FEF49071D
S11320309FEF590761F02E153F054007510739F40A
S11320402E2F33274FEF2F3F340749F470C03196BA
S1132050AB5FBE4FEA30F10509F469C0DFCF85E01C
S113206091E0AC01249FC001259F900D349F900DF9
S1132070112487569C4F90936A038093690386E1E9
S11320800E94430280E090E05BC033271EC0242FEF
S1132090A180B280C380D4808FEFA8168FEFB806DA
S11320A08FEFC8068FEFD80681F38081972F981B96
S11320B0691710F4342F692F4F5F5F4FEB5FFE4FAA
S11320C04A30510521F7232F332785E091E0A901F8
S11320D0489F9001499F300D589F300D1124275679
S11320E03C4F30936A032093690380917A038130D3
S11320F019F489E090E024C0882319F085E090E089
S11321001FC081E080937A03E0927B03F0927C030A
S113211000937D0310937E032B5F3F4F3093800326
S113212020937F0380E00E94E208992709C0709100
S11321306C03E9E9F3E030E060E040E050E0A7CF71
S11321401F910F91FF90EF90DF90CF90BF90AF90D1
S113215008959B01AC0180916E03882319F085E0FA
S113216090E00895CA01B9010E94ED0F9927282F24
S1132170882319F482E080936E03822F99270895AF
S11321809B01AC0180916E03882319F085E090E0F7
S1132190089581E080936E03CA01B9010E94ED0F96
S11321A0992708952F923F924F925F926F927F9258
S11321B08F929F92AF92BF92CF92DF92EF92FF9253
S11321C00F931F93CF93DF93CDB7DEB76C970FB602
S11321D0F894DEBF0FBECDBF80915110882349F41F
S11321E060914B1070914C1080914D1090914E1055
S11321F0BCC1E090360FF090370F0091380F10916A
S1132200390FE98AFA8A0B8B1C8B009147101091C5
S113221048102091491030914A100D871E872F874E
S1132220388B89899A89AB89BC8980179107A20761
S1132230B307E0F080914F1090915010AA27BB276C
S1132240800F911FA21FB31FE988FA880B891C898C
S1132250E816F9060A071B0748F460914B107091C1
S11322604C1080914D1090914E1030C00091AB10E5
S11322701091AC102091AD103091AE1009871A87DF
S11322802B873C8789899A89AB89BC8980179107F8
S1132290A207B307F0F08091B3109091B410AA276D
S11322A0BB27800F911FA21FB31FE988FA880B89EF
S11322B01C89E816F9060A071B0758F46091AF1049
S11322C07091B0108091B1109091B2100E94A91039
S11322D04EC100914B1010914C1020914D10309133
S11322E04E100D831E832F8338872091AF103091B9
S11322F0B0104091B1105091B21029833A834B83AE
S11323005C8360E070E080E090E0AD80BE80CF80D0
S1132310D884EE24FF2400E010E0A22FAA19AD8B8C
S1132320B1E02B2E2A1708F02224E32FEB19EE8BB1
S1132330A1E03E1708F0A0E0BE89B2192B2EB1E04F
S1132340EE89E21508F0B0E0AB2B2E8AF42FFC19CD
S1132350FF8BB1E04F1708F0B0E0FF89FA1BAF2FF5
S1132360F1E02F2EEF89EA1708F02224B229AF8B6F
S1132370F52FFD19F88FA1E05F1708F0A0E0F88DA4
S1132380FB1BBF2FE1E02E2EE88DEF1708F022246F
S1132390A229B88FF62FFE19F98FB1E06F1708F054
S11323A0B0E0F98DFA1BAF2F61E0262EE98DEF170F
S11323B008F02224B229A98FF72FFF19FA8FA1E080
S11323C07F1708F0A0E0FA8DFB1BBF2F51E0252EEC
S11323D0EA8DEF1708F02224A229BA8FF82FF01BF8
S11323E0FB8FB1E08F1708F0B0E02B8C2A1AA1E024
S11323F0FB8DF21508F0A0E0BA2B2B8EA92FA11BA0
S11324009A2F9B1B9C8FE988FA880B891C892D8540
S11324103E854F855889E21AF30A040B150BE98AA5
S1132420FA8A0B8B1C8B17012801662477248824D5
S11324309924AE2CB32CC42CD52CE62CF72C082DC7
S1132440192D2D893E894F89588D698D7A8D8B8DF3
S11324500E942441222E332E442E552E662E772E92
S1132460882E992E89859A85AB85BC85ED84FE845A
S11324700F8518898E199F09A00BB10B89879A873C
S1132480AB87BC879C01AD0160E070E080E090E028
S1132490A22EB32EC42ED52EE62EF72E082F192FDA
S11324A0222D332D442D552D662D772D882D992DD4
S11324B00E942843A22EB32EC42ED52E6D817E8178
S11324C08F8198856A0D7B1D8C1D9D1D0D811E813C
S11324D02F8138850617170728073907F0F0A90157
S11324E09801E980FA800B811C812E153F05400775
S11324F0510750F0E216F3060407150770F4E616C8
S1132500F7060807190748F46D817E818F81988545
S11325106F5F7F4F8F4F9F4F28C009811A812B8196
S11325203C816017710782079307F8F02D813E8183
S11325304F815885E980FA800B811C812E153F0557
S11325404007510750F0E216F3060407150768F434
S1132550621773078407950740F469817A818B8138
S11325609C8161507040804090400E94C0106C96E5
S11325700FB6F894DEBF0FBECDBFDF91CF911F9190
S11325800F91FF90EF90DF90CF90BF90AF909F900E
S11325908F907F906F905F904F903F902F90089511
S11325A02F923F924F925F926F927F928F929F925F
S11325B0AF92BF92CF92DF92EF92FF920F931F934D
S11325C0CF93DF93CDB7DEB72A970FB6F894DEBF6B
S11325D00FBECDBF6B017C012D833E834F83588793
S11325E080917203813019F489E090E07FC18823DF
S11325F019F085E090E07AC12091AC35222349F4AA
S113260080916F0390917003892B19F484E090E01A
S11326106DC18091CB28882371F08091C12890915D
S1132620C228A091C328B091C428C816D906EA06C6
S1132630FB0608F417C180911229909113298D800B
S11326409E80AF80B8848C0C9D1CAE1CBF1C2223C2
S1132650D9F020918A1030918B1040918C105091B8
S11326608D1029013A010894410851086108710844
S1132670AA27BB27820F931FA41FB51F881599058E
S1132680AA05BB0550F4EEC0AA27BB2788159905F7
S1132690AA05BB0508F0E9C0E5C081E08093720398
S11326A0C092360FD092370FE092380FF092390F64
S11326B08D809E80AF80B8848092780F9092790F3D
S11326C0A0927A0FB0927B0F1093D20D0093D10D8C
S11326D04C145D046E047F0408F4E3C010925E356C
S11326E010925F351092603510926135A7E4B0E125
S11326F0E1ECF8E28BE001900D928150E1F7ABEA56
S1132700B0E1E2EAF5E38BE001900D928150E1F74C
S11327107091B510A090B310B090B410BA86A98689
S11327208091AF109091B010A091B110B091B210FF
S113273089839A83AB83BC838090AB109090AC1058
S1132740A090AD10B090AE106091511000914F1058
S11327501091501040904B1050904C1060904D10C0
S113276070904E10209147103091481040914910BC
S113277050914A108FEC282E8FE0382EF10183857A
S1132780882391F180819181A281B381C816D906F1
S1132790EA06FB0690F0662329F0281739074A0752
S11327A05B0710F5F10144805580668077800085D1
S11327B011859C01AD0161E017C0772329F08815CC
S11327C09905AA05BB0580F4F10184809580A68053
S11327D0B78089829A82AB82BC82808491849A86F3
S11327E089864C015D0171E08CE090E0280E391E71
S11327F097E4291690E1390609F67093B510A98576
S1132800BA85B093B410A093B31089819A81AB8137
S1132810BC818093AF109093B010A093B110B0938B
S1132820B2108092AB109092AC10A092AD10B09206
S1132830AE10609351101093501000934F104092BB
S11328404B1050924C1060924D1070924E10209389
S11328504710309348104093491050934A100E94F7
S1132860D21042C086E090E041C081E080937203C0
S1132870C092360FD092370FE092380FF092390F92
S11328808D809E80AF80B8848092780F9092790F6B
S1132890A0927A0FB0927B0F1093D20D0093D10DBA
S11328A009C0C418D508E608F7080894C108D10877
S11328B0E108F108C0925E35D0925F35E092603550
S11328C0F092613560916F037091700380915E3571
S11328D090915F35680F791F4D815E81C8010E9418
S11328E0205588E10E94430280E090E02A960FB6CA
S11328F0F894DEBF0FBECDBFDF91CF911F910F9132
S1132900FF90EF90DF90CF90BF90AF909F908F900B
S11329107F906F905F904F903F902F900895FF921B
S11329200F931F938A01F0904F0243E0F41619F0BD
S113293085E090E027C010924F0210931129009374
S1132940102930938503209384036093BC10709303
S1132950BD108093BE109093BF1033274427552792
S11329600E94D0129927882329F482E08093770F5C
S113297020E006C09927282F882311F0F0924F02F7
S1132980822F99271F910F91FF900895DF92EF9264
S1132990FF920F931F937B018C01D42E0E942A0473
S11329A0882331F080E092E00E94870F0E94870420
S11329B0DD2041F428EB3BE045E159E2C801B701D1
S11329C00E948F141F910F91FF90EF90DF90089554
S11329D0CF93DF93982F8FB7F894C82FDD272C2F30
S11329E080915603882359F481E080935603909391
S11329F038020E944302CFBF80E090E021C0E92F5B
S1132A00FF27E85EF04F80818F3F89F4E091370221
S1132A10E91789F40CC09093360204C0FF27E85EDE
S1132A20F04F90839093370280E090E002C085E0FD
S1132A3090E02FBF05C0809136028F3F79F7EBCF2E
S1132A40DF91CF91089580E00E94E81499270895BA
S1132A501F93982F8FB7F894182F80915F038230BB
S1132A6099F580914602891779F58091440220E016
S1132A7030E08F3F11F421E030E0232BE1F48F3F6D
S1132A8019F42FEF30E00EC0282F3327F901EA574D
S1132A90F04F8081809344028F3F11F4809345026C
S1132AA08FEF80832093460281E080935F0388E068
S1132AB00E94430205C08FEF8093460210925F0389
S1132AC01FBF80E090E003C01FBF81E090E01F9132
S1132AD008951F93182F882311F080E001C080E22D
S1132AE09927982F8827AA2797FDA095BA2F4817CA
S1132AF059076A077B0718F086E090E027C0812F0A
S1132B009927FC01A3E0EE0FFF1FAA95E1F7E81B4C
S1132B10F90BE658FC4F8081823019F489E090E08B
S1132B2015C0882319F085E090E010C082E080830E
S1132B30418352836383748336832583112311F085
S1132B4081E003C080E00E94E20899271F91089564
S1132B50CF93DF93EC01E0918603F09187033097E4
S1132B6019F488E090E0A3C0E650FF4F892F99271D
S1132B708083C18320918A1030918B1040918C10F6
S1132B8050918D10E0918603F0918703E450FF4F3C
S1132B902383BB27A52F942F832F8283CA01AA27BF
S1132BA0BB278183252F33274427552720838091F2
S1132BB06B03882311F468E073C080916803882351
S1132BC019F484E090E071C0823019F489E090E057
S1132BD06CC0813009F067C082E080936803409143
S1132BE0A0105091A1106091A2107091A3104F5F9A
S1132BF05F4F6F4F7F4F4093A0105093A11060938D
S1132C00A2107093A310403080E2580780E0680758
S1132C1080E0780768F01092A0101092A110109232
S1132C20A2101092A31040E050E060E070E002C0F7
S1132C30442391F483E0809368038BEF9DE09093A9
S1132C407D0F80937C0F452F562F672F772720E029
S1132C5080E00E94280905C02BEF3DE080E00E943F
S1132C6069158093A4108091A4109927682F882354
S1132C70B9F49E014427552780918A1090918B10B6
S1132C80A0918C10B0918D10820F931FA41FB51FBB
S1132C9080938A1090938B10A0938C10B0938D1016
S1132CA0862F992704C085E090E0682FF9CFDF9143
S1132CB0CF910895CF93DF93EC0180917203833019
S1132CC019F489E090E092C0882319F085E090E03F
S1132CD08DC083E08093720310925E3510925F354D
S1132CE010926035109261351092D30D1092D40D6C
S1132CF01092D50D1092D60DD093D20DC093D10D54
S1132D004093780F5093790F60937A0F70937B0FF1
S1132D1080916F0390917003892B01F580916D036D
S1132D20882309F459C080916B03882319F080E04B
S1132D3090E005C081E080936B038BEF9DE090935E
S1132D408703809386039093700380936F0310929C
S1132D50132910921229892B09F446C020911229B3
S1132D6030911329C901AA27BB27840F951FA61FD9
S1132D70B71FE0916F03F09170038A3F9105A1059D
S1132D80B105D0F4BE01C9018E0F9F1F0E942055CA
S1132D9080911229909113292091780F3091790F05
S1132DA0820F931F90931329809312298AE10E9422
S1132DB0430280E090E01AC04AEF50E0421B530BFC
S1132DC0BE01C9018E0F9F1F0E9420558AEF90E01B
S1132DD00E94A81599270AC01092700310926F03DD
S1132DE0109213291092122981E090E0DF91CF9183
S1132DF008951F93182FCB01662777270E945A1630
S1132E009927282F882311F41093770F822F99275D
S1132E101F910895DF92EF92FF920F931F93D82E84
S1132E207801890180914E028823A9F481E080937E
S1132E304E0240919A1050919B10662777278091FB
S1132E40CF289091D0280E945A16D81631F4DD204C
S1132E5009F445C002C0813021F482E080934E021F
S1132E603EC08091770F8823D1F5DD20C1F52091F4
S1132E705703309158034091590350915A0380915C
S1132E805B0390915C03A0915D03B0915E032817EE
S1132E9039074A075B0761F42150304040405040F5
S1132EA020935B0330935C0340935D0350935E0374
S1132EB097014427552780915B0390915C03A0916F
S1132EC05D03B0915E03820F931FA41FB51F80930F
S1132ED05B0390935C03A0935D03B0935E031F9127
S1132EE00F91FF90EF90DF9008951F93982F8FB765
S1132EF0F894182F80916003823099F580914A02EA
S1132F00891779F58091480220E030E08F3F11F471
S1132F1021E030E0232BE1F48F3F19F42FEF30E070
S1132F200EC0282F3327F901E45FF64D808180938A
S1132F3048028F3F11F4809349028FEF80832093DE
S1132F404A0281E0809360038FE00E94430205C03F
S1132F508FEF80934A02109260031FBF80E090E0DD
S1132F6003C01FBF81E090E01F91089580912F0F4F
S1132F70823031F481E080932F0F8AE00E94430273
S1132F80089580931429882311F484E001C081E01A
S1132F9080932F0F8AE00E94430208959F92AF927C
S1132FA0BF92CF92DF92EF92FF920F931F93CF9332
S1132FB0DF938091BA10882309F4E9C02FB7F894FD
S1132FC033278091E900A82E8091EA00B82E8091E1
S1132FD0EB00C82E8091EC00D82EF090BA1010921D
S1132FE0BA102FBFF7FE0DC08091110F833011F07E
S1132FF0873039F485E080939D0F88E08093110F2A
S113300045C08091110F843009F040C0F1FE3EC0EC
S113301085E080939D0F1092110F8091D90D83301C
S113302019F41092D90D32C000916A3510916B35A4
S1133030C8010E94730B882311F1C8010E94840BFC
S11330408823E9F0C8010E94980B8F5F9F4FB9F065
S113305090E080918810882309F491E0992379F015
S113306012E01093960F81E0809388106EE370E075
S113307080E090E00E94A20B1093D90D07C010923B
S1133080D90D1092300F80E00E94C117CF2DDD279B
S1133090C5FF42C08091110F863019F41092110FB0
S11330A002C08823C9F5E091AD35F091AE3580E2D8
S11330B0F81619F5F09046019FE1F9228091D70D99
S11330C0982F969596952F2D291B820F8093D70DB7
S11330D084A5826084A7A0A6B1A6C2A6D3A60091A7
S11330E0AD351091AE35B80182E00E94DE0BF801D7
S11330F084A5886084A7F6A60BC0BF0181E00E9466
S1133100DE0B6091AD357091AE3583E00E94DE0B2D
S113311085E08093110F04C08091110F853089F4EC
S1133120C4FF0FC020910B29809146018F71922F0B
S113313096959695891B280F20930B2989E08093F7
S1133140110FC0FF0CC080919D0F823041F480911B
S1133150110F8250823018F483E080939D0FC3FFD7
S113316016C08091110F863091F4809155018F77AC
S1133170809355011092110F809141019927877016
S11331809070892B09F411C2809141010EC2909173
S1133190110F992309F409C2993009F08AC14091A9
S11331A07B018091460187FF4EC0433008F44BC039
S11331B0842F99278A970CF046C0E091AD35F091A1
S11331C0AE3541934250552760E871E0CF010E942B
S11331D020558091AD359091AE350E94EB0B88233C
S11331E049F020E030E08091D90D823081F421E073
S11331F030E00DC08FB7F894282F332790E08091EA
S1133200BB10833008F491E02FBF292F3327232BE1
S1133210D1F0E0917B01FF27E058FE4F8081E091DF
S1133220AD35F091AE3585A785E080939D0F109262
S1133230110FE090AD35F090AE35C7010E94EB0B55
S1133240882339F42FC085E080939D0F1092110FCD
S1133250A8C18091D90D823009F026C1E7019B8174
S1133260E0916A35F0916B358381981709F01CC1A0
S113327089818770823009F017C18091DF008E7FC9
S11332808093DF008FEF809335021092881084A51D
S1133290816084A71092D90D1092300F80E00E94B3
S11332A0C11702C18091D90D8823D1F4C7010E94AE
S11332B0F60B8823A9F085E08093A00F82E0809329
S11332C0A10F1092A20FF70183818093A30F80EACC
S11332D09FE00E942D0E882319F483E08093D90D7A
S11332E00E9464088B01C7010E94F60B882311F029
S11332F00A5C1F4F10935510009354100E946408E9
S1133300061B170BB80110161106BCF48091300F80
S1133310882381F490E080918810882309F491E057
S1133320992359F0882777FD8095982F0E94BF0F25
S113333080E801C080688093300FC7010E94280C88
S1133340AC018091DA0D282F3327F901EE0FFF1F0E
S1133350EF52FF4E808191817091891084179507F7
S113336069F4F901EE59FA4C8081871709F467C0B2
S1133370872F8F5F8093891080831DC000E010E049
S113338080E090E0C1EDD0E1E2E6F5E3DF01682FF3
S11333909C01888199818417950779F42093DA0D2B
S11333A0909189108C91891709F449C0892F8F5FF6
S11333B0809389108C9300E829C08081972F981BF3
S11333C0091710F4092F122F6F5FC9010196119686
S11333D02296319685309105D1F66530B9F4109373
S11333E0DA0DA12FBB27FD01EE0FFF1FEF52FF4E99
S11333F051834083809189108F5F80938910FD01F0
S1133400EE59FA4C8083A155BA4C1C9290918910C4
S1133410892F8F778F3779F40F3768F0E2E6F5E379
S1133420292F207880818F6789132083319685E343
S1133430E736F807B9F78091DA0D282F3327E7012B
S11334409B81A22FBB27FD01E155FA4C808180FFAF
S113345007C0FD01EF53FF4E8081981729F102C088
S113346081608083AF53BF4E9C939FB6F894809144
S1133470BB108330B0F4E0910029E80FE33008F08A
S1133480E350FF27EE0FFF1FED56FC4F0081118123
S1133490F182E0828F5F8093BB108BE00E94430235
S11334A07801892D99278FBFF092AE35E092AD3522
S11334B06FC0292F2150233008F057C0892F825024
S11334C0823098F480919D0F813079F49FEF90932E
S11334D04F0180E880934E01809139018D7F809364
S11334E039019093350282E010C0933089F48091C1
S11334F09D0F833069F48DE580934E018FEF8093A7
S1133500350286E08093420184E080939D0F10C0D1
S1133510223070F480919D0F853051F493E09093A4
S1133520420110924E018FEF8093350290939D0FCC
S11335309091110F913069F480919D0F833009F0BF
S11335404EC08091390182608093390190939D0F20
S11335501BC09230E9F480919D0F833011F51092D5
S11335604E018FEF809335020FC0973089F480911C
S11335705D3580648093480180919D0F853021F4EE
S113358084E080939D0F04C088E08093110F04C0F1
S11335908091110F883029F41092110F89E00E9454
S11335A043028091110F8823D1F480919D0F8530BF
S11335B0B1F48091BA10882391F48091D90D8823B5
S11335C071F48091300F882351F490E08091881039
S11335D0882309F491E0992311F00E94B617809191
S11335E08810823009F076C010928810F090960FFF
S11335F0E1E0FE1629F0F2E0FF1609F06BC063C0AB
S113360000915410109155100E9464082091300FBD
S1133610203829F41092300F0E94B6175BC0E801DD
S1133620C61BD70B27FF03C01C161D06ECF0009128
S11336301C0F10911D0F8091D90D8823A9F4C80186
S11336400E942D0E9927882351F4B8010E94DE0BA5
S1133650F092D90D10936B3500936A3530C09927D9
S1133660182F882361F101C015E02091300F822FBB
S113367099278F77019779F4207822602093300F6F
S11336808CE890E00E94320CAA27BB27BC01CD0134
S11336900E94BF0F1FC027FF0EC01C161D065CF43E
S11336A080E88093300FBE01882777FD8095982F9E
S11336B00E94BF0F02C01092300F812F09C083E017
S11336C08093300F07C01092D90D1092300F80E014
S11336D00E94C1178FB7F894282F33278091150FB4
S11336E0813029F081E08093150F2FBF62CC1092B6
S11336F0150F2FBFDF91CF911F910F91FF90EF9086
S1133700DF90CF90BF90AF909F9008958FB7F894BB
S1133710282F33278091150F81508093150F8038FF
S113372011F02FBF089581E08093150F2FBF0E94E1
S1133730CE1708951F93FC018FE382878091810344
S11337408F5F8093810383832FB7F894332780910D
S1133750150F8F5F8093150F2FBF80912F0F882334
S113376011F015E00DC0F0939610E093951081E0F0
S113377080932F0F10928E108AE00E94430210E073
S11337800E94861B812F99271F910895EF92FF9223
S11337900F931F93CF93DF93082F7B01EA01122F1E
S11337A02D3118F086E090E083C0CA010E94840B9A
S11337B0882351F489819927807390708164986873
S11337C08983892F99278A831E5F612FCE010E94E6
S11337D0540C2FB7F8943327809141029091420200
S11337E02FBF8887892F992789872FB7F894332784
S11337F0809143022FBF99278C831D820B87EE8211
S11338008F2D99278F838FB7F894282F3327809192
S11338105F03882371F482E080935F031092460271
S11338202FBFCE010E949A1B9927182F882399F045
S11338300FC02FBFD093170FC093160F8FB7F894F4
S1133840C82FDD272C2F80915F03882399F406C0AD
S113385080E00E942815812F99272AC081E0809357
S11338605F031092460288E00E944302CFBF80E0CB
S113387090E01EC08091860F8F3F89F4E09145024D
S1133880EE2369F010C01092440204C0FF27EA57E7
S1133890F04F10821092450280E090E002C085E073
S11338A090E02FBF05C0809144028F3F79F7EBCFA2
S11338B0DF91CF911F910F91FF90EF9008950F9397
S11338C01F93CF93DF93E82FFF27EE0FFF1FEA5AD2
S11338D0FF4E11821082809147029927019662E07F
S11338E070E00E94B454682F8093470200E0462F92
S11338F05527FA01EE0FFF1FEA5AFF4EC081D1810E
S1133900209799F0E62FE695E695E695FF27E15F87
S1133910F64D808199279A012770307002C09595E1
S113392087952A95E2F780FF0DC0CA01019662E0EF
S113393070E00E94B454682F0F5F0230C1F6009308
S1133940470215C060934702623088F408810D5025
S11339501127CE010E94980B202FAE01BC018B854C
S11339600E94C61B882319F08EE00E944302DF9157
S1133970CF911F910F910895462F20914702223035
S113398070F4E22FFF27EE0FFF1FEA5AFF4E60810B
S113399071816817790719F4822F0E945F1C0895BA
S11339A0FF920F931F93CF93DF93EB01F42E8E833B
S11339B0892F99278F838AE08B8780915610909165
S11339C05710892B19F085E090E02AC070935710A6
S11339D060935610642F6E5FCE010E94540C809148
S11339E04702823018F480E090E01AC00B8511275A
S11339F0CE010E94980B109247022F2DAE01BC01FC
S1133A00802F0E94C61B9927282F882339F082E033
S1133A10809347021092571010925610822F9927C4
S1133A20DF91CF911F910F91FF9008958FB7F89474
S1133A30282F33278091150F882329F080688093DD
S1133A40150F2FBF089581E08093150F2FBF0E949B
S1133A50CE1708951F920F920FB60F9211242F9331
S1133A603F934F935F936F937F938F939F93AF9302
S1133A70BF93EF93FF938091DF008E7F8093DF00ED
S1133A808FEF8093350280918810813019F482E0A1
S1133A90809388100E94161DFF91EF91BF91AF9102
S1133AA09F918F917F916F915F914F913F912F9152
S1133AB00F900FBE0F901F9018951F938FB7F89417
S1133AC099272091150F2F5F2093150F8FBF809199
S1133AD02F0F882311F015E018C08091110F88234F
S1133AE089F480919D0F853019F489E090E00CC031
S1133AF083E08093110F0E94161D85E080932F0FA1
S1133B0010E003C085E090E0182F0E94861B812FEF
S1133B1099271F91089578941F920F920FB60F92D0
S1133B2011242F933F934F935F936F937F938F93BE
S1133B309F93AF93BF93EF93FF932FB7F8943327DB
S1133B408091BA1082608093BA102FBF0E94161D14
S1133B50FF91EF91BF91AF919F918F917F916F9161
S1133B605F914F913F912F910F900FBE0F901F9037
S1133B70189578941F920F920FB60F9211242F93D9
S1133B803F934F935F936F937F938F939F93AF93E1
S1133B90BF93EF93FF932FB7F89433278091BA1014
S1133BA088608093BA102FBF0E94161DFF91EF9179
S1133BB0BF91AF919F918F917F916F915F914F9141
S1133BC03F912F910F900FBE0F901F9018957894EE
S1133BD01F920F920FB60F9211242F933F934F937E
S1133BE05F936F937F938F939F93AF93BF93EF9361
S1133BF0FF932FB7F89433278091BA108160809394
S1133C00BA102FBF0E94161DFF91EF91BF91AF9183
S1133C109F918F917F916F915F914F913F912F91E0
S1133C200F900FBE0F901F90189578941F920F92CB
S1133C300FB60F9211242F933F934F935F936F937B
S1133C407F938F939F93AF93BF93EF93FF932FB77C
S1133C50F89433278091BA1080688093BA102FBFEC
S1133C600E94161DFF91EF91BF91AF919F918F918B
S1133C707F916F915F914F913F912F910F900FBE64
S1133C800F901F90189578941F920F920FB60F9271
S1133C9011242F933F934F935F936F937F938F934D
S1133CA09F93AF93BF93EF93FF932FB7F89433276A
S1133CB08091BA1080628093BA102FBF0E94161DA3
S1133CC0FF91EF91BF91AF919F918F917F916F91F0
S1133CD05F914F913F912F910F900FBE0F901F90C6
S1133CE0189578941F920F920FB60F9211242F9368
S1133CF03F934F935F936F937F938F939F93AF9370
S1133D00BF93EF93FF932FB7F89433278091BA10A2
S1133D1080618093BA102FBF0E94161DFF91EF910E
S1133D20BF91AF919F918F917F916F915F914F91CF
S1133D303F912F910F900FBE0F901F901895809177
S1133D408F101D9B0CC08823A1F481E080938F10F9
S1133D5082E00E94430285E00E947A03089588234A
S1133D6041F010928F1083E00E94430285E00E948C
S1133D70930308951F920F920FB60F9211242F935D
S1133D803F934F935F936F937F938F939F93AF93DF
S1133D90BF93EF93FF9320916B0093B18091970FA2
S1133DA08927822385FF02C00E949F1EFF91EF9105
S1133DB0BF91AF919F918F917F916F915F914F913F
S1133DC03F912F910F900FBE0F901F9018951F9346
S1133DD01FB7F894662339F080913A0F815080938D
S1133DE03A0F8823D1F42091740330917503215D37
S1133DF03F4F88E2293B380710F02BED30E18091EA
S1133E005102909152022817390759F030937503E3
S1133E102093740382E080933A0F8DE10E94430261
S1133E2015C010927503109274038091500285306E
S1133E3069F481E0809350020E942A04882331F0BF
S1133E4084E092E00E94870F0E948704812F9927C3
S1133E508FBF1F91089581E18093120F86E00E9425
S1133E6043020895282F8091C610813019F084E010
S1133E7090E008957093C0286093BF28CB0122235B
S1133E80E1F07093830360938203840F911D9093F8
S1133E908D0380938C032093C71080915C3580FD43
S1133EA006C0816080935C350E942B1F03C0806232
S1133EB080935C3580E090E00895CB010596909363
S1133EC0830380938203495FE0CFCF93DF93382F3E
S1133ED0DA012D3118F082E090E00FC0FA01359636
S1133EE06183872F9927EA018D8336832483422FA8
S1133EF0BD0180E00E94321F9927DF91CF91089580
S1133F00EF92FF920F931F93CF93DF93182F7B01B0
S1133F10042FE82FFF27EE0FFF1FE354F74D118204
S1133F20108210925302A091BD28B091BE28109720
S1133F3021F08091800F80FF0EC081E080935302B6
S1133F4003C08FE10E9443021123C9F4602FC7010B
S1133F500E94E71E14C0FD01359624813327ED012C
S1133F606D817727762F662781819927682B792B96
S1133F70AD0186810E94651F882331F3E2CFDF9172
S1133F80CF911F910F91FF90EF9008958091C610EB
S1133F90823009F03AC081E08093C6104091C0108D
S1133FA02091BF283091C0288091C710882319F030
S1133FB0823759F50EC080915302882331F5609100
S1133FC0BD287091BE2862177307F9F40E94801F00
S1133FD00895442321F087E00E94430208958FB797
S1133FE0F89499275F985E987298739A8FBF8FB7E9
S1133FF0F89488E190E029E00FB6F894A8958093AE
S113400060000FBE20936000FFCF0895CF92DF922F
S1134010EF92FF920F931F93682F10926503809184
S1134020CD0D833039F0883D09F460C0823009F049
S113403097C010C080916603882309F48CC0109245
S1134040660380915210909153109093C9108093FD
S1134050C8102CC040919C1050919D1060919E10EE
S113406070919F10E0915D10F0915E10009191109D
S113407010919210209193103091941080913E0FE2
S113408090913F0FA091400FB091410F841B950B6D
S1134090A60BB70B80933E0F90933F0FA093400F56
S11340A0B093410F0097A105B10519F41092190FAF
S11340B054C068017901C40ED51EE61EF71E00E047
S11340C011E020E030E00C191109210931098017B1
S11340D09107A207B30710F48C019D01E40FF51FAB
S11340E0AF01C701B6010E94E5023AC020913E0F1C
S11340F030913F0F4091400F5091410F2F5F3F4F40
S11341004F4F5F4F20933E0F30933F0F4093400F2C
S11341105093410F8091B6109091B710A091B810B0
S1134120B091B910281739074A075B07A0F48091AA
S11341308E03882311F4E0E001C0EFEFFF27EE0FB8
S1134140FF1FEC5AFD4F808190918410890F820FDC
S11341500E94090305C06093190F80E10E94430285
S11341601F910F91FF90EF90DF90CF900895809171
S11341703B0F833039F52091390230913A02F9012D
S1134180B8964091FF0E5091000F8381843429F436
S11341908581882311F485E001C080E0280F311D5A
S11341A0842F821B82838091390290913A029093EA
S11341B09F0F80939E0F85E00E94430210923A0263
S11341C0109239021092000F1092FF0E1092CB1031
S11341D01092CA1010923B0F8091310F833019F462
S11341E00E94AE0308951092310F86E00E944302AC
S11341F008958091C610813021F48091CC108330D1
S113420019F089E090E008958091120F882319F045
S113421085E090E008958091C1008F7B8093C10078
S11342208091C1008F778093C1008091C100877F06
S11342308093C1008091C1008F7E8093C1008FEF75
S11342408093350282E08093CC100E94B72080E0F6
S113425090E008951F920F920FB60F9211242F939E
S11342603F934F935F936F937F938F939F93AF93FA
S1134270BF93EF93FF938091C00087FF7DC020918F
S1134280C600E0915B10F0915C10309729F18091A9
S11342905A3590915B35E80FF91F2083019690936E
S11342A05B3580935A3520916D3530916E35821788
S11342B0930708F461C010925C1010925B10809117
S11342C09010833009F458C08091C1008F77809397
S11342D0C1001092901050C02E3709F448C02D37F9
S11342E009F441C08091310F823029F481E0809338
S11342F0310F80E22827E091FF0EF091000F8091AA
S1134300CA109091CB10E817F90731F02193F0937C
S1134310000FE093FF0E30C080913B0F8230F9F420
S11343202083E0913902F0913A029F01285D3F4FCA
S113433083A5843429F485A5882311F485E001C07C
S113434080E0E80FF11DF093000FE093FF0E2E5F65
S11343503F4F3093CB102093CA1083E001C084E018
S113436080933B0F09C082E08093310F05C083E046
S11343708093310F0E94B720FF91EF91BF91AF91CD
S11343809F918F917F916F915F914F913F912F9169
S11343900F900FBE0F901F90189578941F920F9254
S11343A00FB60F9211242F933F934F935F936F9304
S11343B07F938F939F93AF93BF93EF93FF938091DA
S11343C0120F82FD81C084608093120F8091991036
S11343D0813009F042C08091980F882379F52091AB
S11343E05C35822F992782FF11C0E0918203F091FE
S11343F0830380918C0390918D03E817F907D9F01A
S11344008191F0938303E09382030AC081FD0BC082
S1134410246020935C3582E08093C6108091C7109D
S11344200E9402043FC083FD06C0286020935C35CF
S11344308091AA102CC00E94050434C0813041F43C
S113444082E08093980F8091720F0E94E0032AC04B
S113445083E0809399108EE707C0823041F481E0B5
S1134460809399108091950F0E94D2031BC08823DA
S113447089F481E0809399101092720F1092710F59
S113448080915C3581FF02C083E401C085E40E9411
S1134490F10308C08091120F80628093120F86E0AE
S11344A00E9443028FB7F8942091120F23FF02C099
S11344B0277F01C02B7F2093120F99278FBF8091F4
S11344C0120F82FF04C082CF88608093120FFF9185
S11344D0EF91BF91AF919F918F917F916F915F9178
S11344E04F913F912F910F900FBE0F901F901895F1
S11344F080E00E94E8149927282F882331F481E072
S113450090E090933D0F80933C0F822F992708955C
S113451080916303813011F40E9478228FB7F8945C
S1134520992710926303109262038FBF089580E06D
S11345300E942F0380E00E94E81408958F929F92B6
S1134540AF92BF92CF92DF92EF92FF920F931F939D
S1134550CF93DF93CDB7DEB726970FB6F894DEBFBF
S11345600FBECDBF5B016C0188249924E0E6F0E125
S1134570608561FFC4C02081318142815381E48020
S1134580F58006811781D601C501821B930BA40B0C
S1134590B50B8E159F05A007B10708F4B0C060FFE6
S11345A003C06D7F608708C02E0D3F1D401F511F43
S11345B0208331834283538381E0881631F1881646
S11345C028F083E0881609F0A3C08AC01FB7F894C6
S11345D0809164038823A9F481E08093620380E0DE
S11345E00E94E8149927882339F482E090E090939C
S11345F03D0F80933C0F05C0893019F480E00E9480
S11346008822812F99278FBF83C080E00E9475176D
S113461080914002882309F47BC0E0905B03F09012
S11346205C0300915D0310915E030E942A048823B9
S113463089F084E192E00E94870FEB82FC820D8373
S11346401E83AE014D5F5F4F68E084E00E946A0FF5
S11346500E9487040E942A048823F1F187E192E0F2
S11346600E94870F80913B0290913C029A83898338
S1134670AE014F5F5F4F65E082E00E946A0F809158
S11346801F0F9091200FA091210FB091220F209124
S1134690230F3091240F4091250F5091260F821B38
S11346A0930BA40BB50B8B839C83AD83BE838E01CC
S11346B00D5F1F4FA80168E084E00E946A0F0E940A
S11346C0CB046B837C838D839E83A80168E084E0A4
S11346D00E946A0F0E94870482E00E94360A18C072
S11346E060917603709177038091780390917903B8
S11346F028EB3BE045E159E20E948F1409C008947D
S1134700811C911C399684E08816910409F030CFFD
S113471083E10E94430226960FB6F894DEBF0FBED3
S1134720CDBFDF91CF911F910F91FF90EF90DF905C
S1134730CF90BF90AF909F908F900895EF92FF928B
S11347400F931F93CF93DF937A012091CD0D2330E4
S113475069F0243020F4223009F08CC073C0273C67
S113476009F47EC0283D09F085C07AC08D5C9D4067
S113477049F440919C1050919D1060915D1070918E
S11347805E1056C080916603882309F456C0C0E0C9
S1134790D0E001E01FE00EC0F80161918F0180912B
S11347A05210909153100E948B0290935310809357
S11347B052102196CE15DF0579F797014427552726
S11347C080918F0390919003A0919103B0919203F3
S11347D0820F931FA41FB51F80938F0390939003A0
S11347E0A0939103B09392038091880390918903DD
S11347F0A0918A03B0918B03821B930BA40BB50B7E
S11348008093880390938903A0938A03B0938B03C6
S11348100097A105B10589F0AC01BD014197A1053F
S1134820B10520F040E150E060E070E061E07FE03D
S113483080E090E00E946A021DC0289A80E00E94F5
S1134840062018C08D5C9D4059F440919C105091F5
S11348509D1060E070E080915D1090915E10EACF51
S1134860289A81E08093650380E00E942F0380E012
S11348700E94E814DF91CF911F910F91FF90EF9068
S113488008951F920F920FB60F9211242F933F9306
S11348904F935F936F937F938F939F93AF93BF9344
S11348A0EF93FF932EB5E0911A0FF0911B0F309701
S11348B039F08091A7109091A810E80FF91F208378
S11348C08091A7109091A81001969093A8108093BE
S11348D0A71080E00E94DA014091A5105091A61023
S11348E08091A7109091A8108417950718F40E943E
S11348F0E6011CC060911A0F70911B0F8091320F5A
S11349009091330F10921B0F10921A0F1092330FC5
S11349101092320F1092A6101092A5101092A810A7
S11349201092A7102EB520E00E949E23FF91EF91D4
S1134930BF91AF919F918F917F916F915F914F91B3
S11349403F912F910F900FBE0F901F9018952F92AB
S11349503F924F925F926F927F928F929F92AF920B
S1134960BF92CF92DF92EF92FF920F931F93CF9358
S1134970DF93CDB7DEB72E970FB6F894DEBF0FBE28
S1134980CDBF882E2B010F83188729873A871701FB
S1134990AB86BC86CD86DE86882381F00E942A04FD
S11349A0882309F4E5C08CE192E00E94870F898294
S11349B0AE014F5F5F4F62E081E0D6C087E1E81649
S11349C0F10409F0B0C0DB018C91882309F0BDC06B
S11349D00E942A04882309F4CBC042010894811C54
S11349E0911C85E489833E010894611C711CA30118
S11349F06BE081E00E946A0FF201818192819A83C7
S1134A008983A30165E082E00E946A0FF401828138
S1134A109381A481B5818B839C83AD83BE83F3E0B2
S1134A204F2E512C4C0E5D1EA20168E084E00E94C2
S1134A306A0FF401628173818481958140E00E9450
S1134A4053066B837C838D839E83A20168E084E09C
S1134A500E946A0FF401A280B380C480D5800E94B2
S1134A6075087B018C0140E0C601B5010E94530624
S1134A70E61AF70A080B190BEB82FC820D831E83DE
S1134A80A20168E084E00E946A0FF40186819781A4
S1134A909A838983A30164E082E00E946A0FF4018F
S1134AA0808591859A838983A30165E082E00E94D1
S1134AB06A0FF401828593859A838983A30165E053
S1134AC082E00E946A0FF401848595859A83898324
S1134AD0A30164E082E00E946A0FF4018685978551
S1134AE09A838983A30165E082E00E946A0FF4013E
S1134AF0808991899A838983A30164E082E00E947A
S1134B006A0FF401828993899A838983A30165E0FA
S1134B1082E00E946A0FF401848995899A838983CB
S1134B20A30164E020C0F1E0EF16F8E0FF0669F4A9
S1134B30DB018C91813149F40E942A048823C1F05D
S1134B408FE192E00E94870F11C00E942A048823FB
S1134B5079F084E292E00E94870F3A822982AE01C2
S1134B604F5F5F4F65E082E00E946A0F0E948704F6
S1134B700E942A04882341F13A822982AE014F5FC0
S1134B805F4F65E082E00E946A0F8F819885A98556
S1134B90BA858B839C83AD83BE838E010D5F1F4FCB
S1134BA0A80168E084E00E946A0F8B859C85AD852E
S1134BB0BE858B839C83AD83BE83A80168E084E0BB
S1134BC00E946A0F0E9487048B859C85AD85BE85F3
S1134BD08093760390937703A0937803B09379033B
S1134BE00E947508AB01BC01E1E0EE2E0AE010E082
S1134BF020E030E083E00E94A4082E960FB6F894DB
S1134C00DEBF0FBECDBFDF91CF911F910F91FF90FB
S1134C10EF90DF90CF90BF90AF909F908F907F9058
S1134C206F905F904F903F902F9008959F92AF9216
S1134C30BF92CF92DF92EF92FF920F931F93CF9385
S1134C40DF93EC01842F442309F050C190904F026C
S1134C50992009F082C0A0E0B0E07727FE0102C0ED
S1134C6011963196A617B70719F080818E35C1F7D2
S1134C70FE01EA0FFB1F01C01196A617B70718F42F
S1134C8081918E35C9F3E090BC10F090BD10009175
S1134C90BE101091BF10E0911029F09111299D01CF
S1134CA044275527A617B70719F5CA01B9016E0D90
S1134CB07F1D801F911F6150704080409040609321
S1134CC0BC107093BD108093BE109093BF102091C0
S1134CD084033327442755278F010E94D012992734
S1134CE0882309F4A3C09927882309F41DC1FEC0B1
S1134CF081E080934F02CA01B9016E0D7F1D801FB0
S1134D00911F61507040804090406093BC1070933C
S1134D10BD108093BE109093BF106F5F7F4F8F4F75
S1134D209F4F60936F357093703580937135909376
S1134D30723510929C0F10929B0F8F0121E030E08E
S1134D4040E050E00E94D0129927882309F46EC0F5
S1134D509927882309F4E8C0C9C081E0981609F0AE
S1134D606EC088818E3509F583E080934F02A09050
S1134D706F35B0907035C0907135D0907235E09039
S1134D809B0FF0909C0F0091BC101091BD102091CE
S1134D90BE103091BF1040918403509185036091FF
S1134DA010297091112980E0BDC08D3521F482E075
S1134DB080934F0209C080919B0F90919C0F0196A4
S1134DC090939C0F80939B0FE0909B0FF0909C0F0F
S1134DD04091840350918503A0906F35B090703555
S1134DE0C0907135D0907235E0911029F09111295D
S1134DF0E416F50608F049C0EE0EFF1EC601B50123
S1134E006F5F7F4F8F4F9F4F60936F3570937035F7
S1134E108093713590937235870121E030E040E052
S1134E2050E00E94D0129927882321F482E08093D5
S1134E30770F7AC09927882309F476C057C082E097
S1134E40981609F071C0888190E289278883E090E0
S1134E509B0FF0909C0F0894E11CF11CF0929C0FA6
S1134E60E0929B0F4091840350918503A0906F358D
S1134E70B0907035C0907135D0907235E0911029A2
S1134E80F0911129E416F50670F083E080934F0247
S1134E900091BC101091BD102091BE103091BF1034
S1134EA0BF018AE03FC081E080934F02EE0EFF1EF7
S1134EB0C601B5016F5F7F4F8F4F9F4F60936F3572
S1134EC0709370358093713590937235870121E02A
S1134ED030E040E050E00E94D0129927882319F472
S1134EE09092770F21C099278823F1F0A0906F3515
S1134EF0B0907035C0907135D0907235E0909B0FB2
S1134F00F0909C0F0091BC101091BD102091BE1028
S1134F103091BF1040918403509185036091102912
S1134F20709111290E94A724DF91CF911F910F91B5
S1134F30FF90EF90DF90CF90BF90AF909F90089537
S1134F402F923F924F925F926F927F928F929F9295
S1134F50AF92BF92CF92DF92EF92FF920F931F9383
S1134F60CF93DF93CDB7DEB724970FB6F894DEBFA7
S1134F700FBECDBF2B013C014A0109831A832B8349
S1134F803C83170180917103882309F491C1CC20DB
S1134F9009F03EC1E090360FF090370F0091380FC2
S1134FA01091390F20915E3530915F354091603515
S1134FB050916135D801C701820F931FA41FB51FFB
S1134FC0A980BA80CB80DC808A159B05AC05BD0521
S1134FD009F48CC0211531054105510509F06DC056
S1134FE0A80197012A193B094C095D09C101AA27A7
S1134FF0BB2782179307A407B50708F45EC0B7015F
S11350006A197B096101C61AD70A2091780F309179
S1135010790F40917A0F50917B0FC601AA27BB27C5
S1135020281739074A075B0708F46901680D791DD9
S1135030A6018091D10D9091D20D0E94205510921D
S11350406A0310926903A6016627772780915E356B
S113505090915F35A0916035B0916135480F591F2B
S11350606A1F7B1F40935E3550935F3560936035B4
S113507070936135E090780FF090790F00917A0F7A
S113508010917B0F4E155F056007710709F4F0C09E
S11350908091A6359091A735A091A835B091A935F6
S11350A084159505A605B70509F08BC0CA012091A2
S11350B0D10D3091D20DA70169C0109272031092E4
S11350C06A0310926903E091D10DF091D20D009121
S11350D0780F1091790F20917A0F30917B0F809186
S11350E0770F823009F0AFC041E0A9C05101CC2450
S11350F0DD24E090780FF090790F00917A0F1091F1
S11351007B0FDA01C9018A0D9B1DAC1DBD1DE09109
S1135110D10DF091D20D8E159F05A007B10708F0AF
S113512059C0E20FF31FA101B401CF010E94205521
S113513010926A031092690320915E3530915F35B5
S113514040916035509161352A0D3B1D4C1D5D1D0C
S113515020935E3530935F354093603550936135CD
S11351608091A6359091A735A091A835B091A93525
S113517084159505A605B70521F5C9012091D10D22
S11351803091D20D4091780F5091790F481B590BF3
S113519060916F0370917003820F931F0E942055DA
S11351A08091780F9091790FA0917A0FB0917B0F35
S11351B080935E3590935F35A0936035B0936135ED
S11351C057C0C301B2016F5F7F4F8F4F9F4F0E9443
S11351D0A91039C0C901A701481B590BB4018E0F8E
S11351E09F1F0E9420558091780F9091790FA09174
S11351F07A0FB0917B0F80935E3590935F35A093C7
S11352006035B093613510926A031092690330C01F
S113521010926A031092690310927203E091D10D07
S1135220F091D20D0091780F1091790F20917A0F9F
S113523030917B0F8091770F823029F44C2D602FB1
S1135240CF010E94162620915E3530915F35409142
S11352506035509161358091780F9091790FA091CC
S11352607A0FB0917B0F281739074A075B0701F5BE
S11352708101A301920169817A818B819C810E94C1
S11352805F0910927203E091D10DF091D20D00915B
S1135290780F1091790F20917A0F30917B0F8091C4
S11352A0770F823029F440E0602FCF010E94162648
S11352B024960FB6F894DEBF0FBECDBFDF91CF9119
S11352C01F910F91FF90EF90DF90CF90BF90AF9020
S11352D09F908F907F906F905F904F903F902F9012
S11352E00895AF92BF92CF92DF92EF920F931F93E4
S11352F05B016C010E947508AB01BC01A1E0EA2EC0
S11353009601850181E00E94A4081F910F91EF90FE
S1135310DF90CF90BF90AF9008951F93182F60EC4B
S113532074ED81E090E00E94712910923E02109287
S11353303F02112311F40E945D1D1F9108956623FD
S113534009F043C010928A1010928B1010928C10A6
S113535010928D102FEF3FE140E050E060E070E0EC
S113536080E090E00E94520B1092CB281092C52846
S11353701092C6281092C7281092C8281092A635F9
S11353801092A7351092A8351092A9351092A23523
S11353901092A3351092A4351092A5351092AB3516
S11353A01092AA351092AC3510928703109286039E
S11353B010926B031092700310926F031092720399
S11353C08091770F882359F0089510927203809189
S11353D0770F882339F4862F0E948D29089580E061
S11353E00E948D2908956F927F928F929F92AF921F
S11353F0BF92CF92DF92EF92FF920F931F93CF93BE
S1135400DF933B014C01EA0180917103882309F485
S11354109DC1222309F076C18091C5289091C628A8
S1135420A091C728B091C82812E0A12EB12CA40ED7
S1135430B51ECA80681679068A069B0609F04EC016
S1135440F501E280FF2400271127102F0F2DFE2CD9
S1135450EE242C2D332744275527522F4427332756
S1135460222781819927AA27BB27DC01992788272E
S1135470282B392B4A2B5B2B83819927AA27BB27FF
S1135480282B392B4A2B5B2BE22AF32A042B152BCE
S1135490E0924710F09248100093491010934A107C
S11354A0E092C128F092C2280093C3281093C42824
S11354B081E0809351108093CB2828813327322FA9
S11354C0222789819927282B392B30935010209338
S11354D04F103093CA282093C928F7C00881112798
S11354E0102F002789819927082B192BF501628138
S11354F0772788279927982F872F762F6627DD24EB
S1135500EE24FF24FC2CEE24DD24CC242B81332731
S113551044275527A90133272227C22AD32AE42A5C
S1135520F52A2D81332744275527C22AD32AE42A72
S1135530F52A6C297D298E299F29A40193010E94B3
S11355405F09F501E280FF2400271127102F0F2D9A
S1135550FE2CEE242A81332744275527522F442733
S1135560332722278B819927AA27BB27DC01992778
S11355708827282B392B4A2B5B2B8D819927AA2727
S1135580BB27282B392B4A2B5B2BE22AF32A042B2B
S1135590152B8091360F9091370FA091380FB09151
S11355A0390F8E159F05A007B10708F447C0609214
S11355B04B1070924C1080924D1090924E10E280DD
S11355C0FF2400271127102F0F2DFE2CEE242A81F3
S11355D0332744275527522F4427332722278B81EB
S11355E09927AA27BB27DC0199278827282B392B41
S11355F04A2B5B2B8D819927AA27BB27282B392B74
S11356004A2B5B2BE22AF32A042B152BE09247103A
S1135610F09248100093491010934A1081E080934F
S1135620511088819927982F882729813327822B25
S1135630932B9093501080934F1047C06092AF10FB
S11356407092B0108092B1109092B210F501E28085
S1135650FF2400271127102F0F2DFE2CEE242A8162
S1135660332744275527522F4427332722278B815A
S11356709927AA27BB27DC0199278827282B392BB0
S11356804A2B5B2B8D819927AA27BB27282B392BE3
S11356904A2B5B2BE22AF32A042B152BE092AB1046
S11356A0F092AC100093AD101093AE1081E0809393
S11356B0B51088819927982F882729813327822B31
S11356C0932B9093B4108093B31010926A031092AA
S11356D0690380917203823091F4109272030091F5
S11356E0C1281091C2282091C3283091C4288091E8
S11356F0770F823059F540E0C901B80112C00E9409
S1135700D21024C080917203109272033091770FEB
S1135710823051F43230D1F4422F6FEF7FEF8FEFAC
S11357209FEF0E94C61412C0E091D10DF091D20DEA
S11357306091780F7091790F80917A0F90917B0F1F
S1135740323021F4422FCF010E941626DF91CF91EF
S11357501F910F91FF90EF90DF90CF90BF90AF908B
S11357609F908F907F906F9008952F923F924F92C9
S11357705F926F927F928F929F92AF92BF92CF92DD
S1135780DF92EF92FF920F931F93CF93DF93CDB7E6
S1135790DEB723970FB6F894DEBF0FBECDBF3B0133
S11357A04C015E2C4091860350918703DA01A65088
S11357B0BF4F8C919927982F88279B838A83FD015B
S11357C0818199276A817B81682B792B7B836A830A
S11357D0DA01A450BF4F3C90FD0121804280A38197
S11357E0A98380917103882309F497C1EE2009F0FD
S11357F074C18091AC35882309F458C00115110592
S11358002105310509F452C08091C5289091C6281C
S1135810A091C728B091C828681679068A069B0605
S113582009F044C00E94310A5B016C012AEF30E0A8
S113583040E050E00E94C75479018A011092CB28BD
S1135840A40193012E0D3F1D401F511F21503040D4
S113585040405040C401B3010E94520B8091C528BE
S11358609091C628A091C728B091C8288E0D9F1D7D
S1135870A01FB11F8093C5289093C628A093C72862
S1135880B093C8288091D30D9091D40DA091D50DDB
S1135890B091D60D8A0D9B1DAC1DBD1D8093D30DFB
S11358A09093D40DA093D50DB093D60D6092A635E8
S11358B07092A7358092A8359092A935E42CFF24E4
S11358C000271127102F0F2DFE2CEE24232D332714
S11358D044275527522F442733272227822D9927DF
S11358E0AA27BB27DC0199278827282B392B4A2B89
S11358F05B2BF9818F2F9927AA27BB27282B392BBC
S11359004A2B5B2BE22AF32A042B152BE092A235B7
S1135910F092A3350093A4351093A5352A813B81D9
S11359203093AB352093AA3581E08093AC358091D8
S11359307203833009F0CAC080911229909113290F
S1135940281B390BB9018B012227332780915E353F
S113595090915F35A0916035B0916135080F191FA2
S11359602A1F3B1F00935E3510935F3520936035EB
S1135970309361351092132910921229C090780F38
S1135980D090790FE0907A0FF0907B0FD701C60189
S1135990801B910BA20BB30B8A3F9105A105B105A6
S11359A008F067C0C016D106E206F30689F1B80113
S11359B0A601401B510B8091D10D9091D20D680F1F
S11359C0791F80916F03909170030E94205520915C
S11359D0780F3091790F40917A0F50917B0F80911D
S11359E05E3590915F35B901681B790B809112295E
S11359F090911329860F971F90931329809312294E
S1135A0020935E3530935F35409360355093613514
S1135A10109272030091780F1091790F20917A0FF0
S1135A2030917B0FA090D10DB090D20DC090D30DCA
S1135A30D090D40DE090D50DF090D60D40918A1001
S1135A4050918B1060918C1070918D10415050408A
S1135A50604070408091122990911329AA27BB2796
S1135A60480F591F6A1F7B1F401B510B620B730B9E
S1135A702BC08091D10D9091D20D800F911FA091D8
S1135A806F03B0917003FC018AEF01900D92815075
S1135A90E1F78AEF90E00E94A8158823F1F11092B3
S1135AA07203A090D10DB090D20D0091780F109197
S1135AB0790F20917A0F30917B0FCC24DD2476016D
S1135AC040E050E060E070E080E025C01092720396
S1135AD0109213291092122920C0809172031092FF
S1135AE0720310921329109212298330B1F4A090FA
S1135AF0D10DB090D20D0091780F1091790F2091B3
S1135B007A0F30917B0FCC24DD24760140E050E005
S1135B1060E070E0852D0E940A1723960FB6F89472
S1135B20DEBF0FBECDBFDF91CF911F910F91FF90CC
S1135B30EF90DF90CF90BF90AF909F908F907F9029
S1135B406F905F904F903F902F9008952F923F92C7
S1135B504F925F926F927F928F929F92AF92BF9279
S1135B60CF92DF92EF92FF920F931F93CF93DF9325
S1135B704B015C01DA0180917303853009F4A3C3FE
S1135B80222309F0A0C38091D80D882399F0CBE893
S1135B90DFE0FA0186E0019009928150E1F78092FA
S1135BA0870F9092880FA092890FB0928A0F10925B
S1135BB0D80D10C0C5E0D9E2FA0186E0019009923F
S1135BC08150E1F78092012990920229A092032941
S1135BD0B092042910926A0310926903FD019D0199
S1135BE02A5F3F4F81918F3F29F4E217F30709F4AD
S1135BF012C3F8CFFD0132960C911127102F002704
S1135C00ED0189819927082B192B62817727882731
S1135C109927982F872F762F6627CA80DD24EE24B4
S1135C20FF24FC2CEE24DD24CC24218133274427BB
S1135C305527A90133272227C22AD32AE42AF52A81
S1135C402381332744275527C22AD32AE42AF52A55
S1135C506C297D298E299F29A50194010E945F0941
S1135C6080917303813009F046C181149104A10429
S1135C70B10439F46FEF7FE180E090E00E94C0103E
S1135C803AC1E5E0F9E281918F3FC1F589E2EB3059
S1135C90F807C9F7EBE8FFE081918F3F09F00BC1EA
S1135CA08FE0E139F80709F4BDC2F6CF8FEF9FE129
S1135CB0A0E0B0E08093A0109093A110A093A21054
S1135CC0B093A31081E08093680310928A1010921D
S1135CD08B1010928C1010928D1081E080936D03C4
S1135CE0CC24DD24EE24FF24870120E030E040E0D2
