S0110000626F6F746C6F616465722E68657850
S21401E0000C9466F00C9485F00C9485F00C9485F0D5
S21401E0100C9485F00C9485F00C9485F00C9485F0A6
S21401E0200C9485F00C9485F00C9485F00C9485F096
S21401E0300C9485F00C9485F00C9485F00C9485F086
S21401E0400C9485F00C9485F00C9485F00C9485F076
S21401E0500C9485F00C9485F00C9485F00C9485F066
S21401E0600C9485F00C9485F00C9485F00C9485F056
S21401E0700C9485F00C9485F00C9485F00C9485F046
S21401E0800C9485F00C9485F00C9485F00C9485F036
S21401E0900C9485F00C9485F00C9485F00C9485F026
S21401E0A00C9485F00C9485F00C9485F00C9485F016
S21401E0B00C9485F00C9485F00C9485F00C9485F006
S21401E0C00C9485F00C9485F00C9485F011241FBEF9
S21401E0D0CFEFD1E2DEBFCDBF12E0A0E0B2E0E8EACA
S21401E0E0F9EE01E00BBF02C007900D92A230B10716
S21401E0F0D9F712E0A2E0B2E001C01D92AC30B10740
S21401E100E1F70E94C1F10C94D3F40C9400F022B113
S21401E110276022B922B16AE070E00E948AF46F5F3C
S21401E1206095262322B908950F931F93CF93DF930B
S21401E1308C01EA016534C9F488819981AA81BB8181
S21401E14081BD292F3A2F4B2F552722BD0196A11DA0
S21401E150B11D88839983AA83BB83F89A80B50E94F0
S21401E160C2F30150104041F73AC0663409F037C097
S21401E17088819981AA81BB81880F991FAA1FBB1F1D
S21401E18088839983AA83BB8388819981AA81BB816D
S21401E190ABBFFC0187910E94C2F388819981AA8155
S21401E1A0BB810196A11DB11DABBFFC0187910E94E9
S21401E1B0C2F388819981AA81BB810296A11DB11DF6
S21401E1C088839983AA83BB8302501040E9F6B695EB
S21401E1D0A7959795879588839983AA83BB83DF91B3
S21401E1E0CF911F910F9108954F925F926F927F92F8
S21401E1F08F929F92AF92BF92CF92DF92EF92FF9251
S21401E2000F931F93CF93DF93CDB7DEB7C058D0409F
S21401E2100FB6F894DEBF0FBECDBF4C015A01653470
S21401E22009F043C000E010E008C00E94CEF3FE01F2
S21401E230E00FF11F81830F5F1F4F240166247724AF
S21401E2400815190591F707B600FCFDCFCC24DD248F
S21401E2507601BE016F5F7F4F22C0F50120813181BB
S21401E2604281538121BDBB27A52F942F832F82BDC9
S21401E270FB01EC0DFD1D808180BDFA9AF99AF99992
S21401E280FECF2F5F3F4F4F4F5F4FF5012083318306
S21401E290428353830894C11CD11CE11CF11CC41495
S21401E2A0D504E604F704C9F652C0663419F08FE3C4
S21401E2B090E04FC0FA01C080D180E280F380CC0CA0
S21401E2C0DD1CEE1CFF1CC082D182E282F3820E941A
S21401E2D0CEF3082F11270E94CEF3F501208131815C
S21401E2E04281538161E09927982F8827082B192BA3
S21401E2F00801F90140935B0060935700E8951124EB
S21401E3002E5F3F4F4F4F5F4FF5012083318342838E
S21401E31053838EEF9FEF880E991E81149104B9F6F0
S21401E32085E0F601E0925B0080935700E89507B61A
S21401E33000FCFDCF81E180935700E89556954795FF
S21401E34037952795F50120833183428353838DE0EA
S21401E35090E0C058DF4F0FB6F894DEBF0FBECDBFBA
S21401E360DF91CF911F910F91FF90EF90DF90CF90AB
S21401E370BF90AF909F908F907F906F905F904F90DF
S21401E3800895CBEFD1E2DEBFCDBF0A9A099A089A6B
S21401E39087E082B960E07BE480E090E00E9469F467
S21401E3A090930302809302020E94BAF31092050230
S21401E3B0109204020E94CEF3082F809100029091E1
S21401E3C001020E9487F0013611F489E5D0C10134BB
S21401E3D0A1F40E94CEF3E82E0E94CEF3FF24FE2C79
S21401E3E0EE249927E82AF92A0027F7FC0095102F32
S21401E3F0E982FA820B831C8374C1053669F587E0CE
S21401E40082B9129880E090E0A0E0B0E023E007B681
S21401E41000FCFDCFFC01A0935B0020935700E8951C
S21401E42080589F4FAF4FBF4F803A36E8930731E091
S21401E430A30730E0B30758F389839A83AB83BC8381
S21401E4408DE00E94C2F387E082B981E090E090936C
S21401E450050280930402AECF023641F489E50E949C
S21401E460C2F380E00E94C2F380E881C10234A9F4BD
S21401E4700E94CEF3082F0E94CEF31127D02ECC2473
S21401E4809927C82AD92A0E94CEF3AE014F5F5F4F63
S21401E490682FC6010E94F4F06AC10736A9F40E94EB
S21401E4A0CEF3082F0E94CEF31127D02ECC24992725
S21401E4B0C82AD92A0E94CEF3AE014F5F5F4F682F5C
S21401E4C0C6010E9494F076CF023519F507B600FC16
S21401E4D0FDCF81E180935700E89589819A81AB81D0
S21401E4E0BC81880F991FAA1FBB1F0196A11DB11DD4
S21401E4F0ABBFFC0187910E94C2F389819A81AB81EF
S21401E500BC81880F991FAA1FBB1FABBFFC01879157
S21401E51078C0033629F40E94CEF3C82EDD24E1C06C
S21401E5200334F1F40E94CEF39927982F8827C82A3E
S21401E530D92A07B600FCFDCF89819A81AB81BC81BF
S21401E54061E09C01AD01220F331F441F551F0601D8
S21401E550F90140935B0060935700E89511243BC096
S21401E5600D36F9F429813A814B815C81203583ECA3
S21401E570380780E0480780E0580720F08FE30E94C4
S21401E580C2F3AFC007B600FCFDCF85E0220F331FF4
S21401E590441F551FF90140935B0080935700E8958F
S21401E5A0A0C0043401F507B600FCFDCF89819A812D
S21401E5B0AB81BC8181BD892F9A2FAB2FBB2782BD32
S21401E5C00E94CEF380BDFA9AF99AF999FECF898115
S21401E5D09A81AB81BC810196A11DB11D89839A8365
S21401E5E0AB83BC837EC00436D1F489819A81AB812A
S21401E5F0BC8181BD892F9A2FAB2FBB2782BDF89A8C
S21401E60080B50E94C2F389819A81AB81BC81019653
S21401E610A11DB11D89839A83AB83BC83CBCE0C36F7
S21401E62069F407B600FCFDCF0E94CEF399E0E1E065
S21401E630F0E0082E90935700E89553C0023751F446
S21401E64007B600FCFDCF89E0E1E0F0E080935700DB
S21401E65084918DC0063461F487B79927FC01E17077
S21401E660F07080FDF9CF89E08093570084917FC0D8
S21401E6700E3451F407B600FCFDCF89E0E3E0F0E08C
S21401E68080935700849173C0013551F407B600FC9E
S21401E690FDCF89E0E2E0F0E080935700849167C007
S21401E6A00035F9F00C34E9F0053459F407B600FCEE
S21401E6B0FDCF81E180935700E8958DE00E94C2F37B
S21401E6C048C0003711F483E552C0043711F480E0E6
S21401E6D04EC0802F8857823010F0043521F40E94F6
S21401E6E0CEF38DE044C00335A1F481E40E94C2F369
S21401E6F086E50E94C2F382E50E94C2F382E40E948C
S21401E700C2F38FE40E94C2F38FE40E94C2F384E551
S21401E7102EC0063529F481E30E94C2F385E327C0A3
S21401E720033741F484E00E94C2F387E90E94C2F3F2
S21401E7308EE11DC00F3FB9F4809100029091010255
S21401E740009759F407B600FCFDCF81E1809357008E
S21401E750E895E0E0F0E009952DCE0197909301024F
S21401E7608093000203C00B3109F424CE8FE30E948C
S21401E770C2F320CE809102028093C40088E1809388
S21401E780C10008958093C6008091C00086FFFCCF2B
S21401E7908091C00080648093C00008958091040237
S21401E7A090910502892B09F0119A80EA96E8A1E07A
S21401E7B0B0E08093060290930702A0930802B093FC
S21401E7C0090220EA36E841E050E08091C00087FD6A
S21401E7D019C0DA01C9010197A109B1098F3F6FEF8D
S21401E7E096076FEFA6076FEFB60719F09C01AD010C
S21401E7F0ECCF209306023093070240930802509311
S21401E80009020DC0209306023093070240930802C6
S21401E81050930902211531054105510519F48FEF71
S21401E82090E0089511988091C6009927089581E097
S21401E8308093810080E28093B60083E08093B100EC
S21401E84020918400309185004AE780918400909160
S21401E85085008217930708F441509C014423A9F7C9
S21401E8609091B2008091B2008917E1F32091840063
S21401E870309185009091B2008091B2008917E1F342
S21401E8808091840090918500821B930B409625E031
S21401E890969587952A95E1F790930B0280930A0245
S21401E8A01092B1008091B100809381008091810027
S21401E8B08093B6001092B2001092850010928400E8
S21401E8C08FEF87BB87B386BB8091B6008571E1F772
S21401E8D00895EF92FF920F931F937B018C010E9484
S21401E8E017F460910A0270910B02882799273BE082
S21401E8F0660F771F881F991F3A95D1F7A8019701D0
S21401E9000E949DF4DA01C90101971F910F91FF90B2
S21401E910EF90089597FB092E07260AD077FD04D0BD
S21401E9202ED006D000201AF4709561957F4F089579
S21401E930F6F7909581959F4F0895A1E21A2EAA1B8E
S21401E940BB1BFD010DC0AA1FBB1FEE1FFF1FA21799
S21401E950B307E407F50720F0A21BB30BE40BF50B96
S21401E960661F771F881F991F1A9469F7609570951F
S21401E970809590959B01AC01BD01CF010895AA1B1E
S21401E980BB1B51E107C0AA1FBB1FA617B70710F094
S21401E990A61BB70B881F991F5A95A9F780959095C6
S20C01E9A0BC01CD010895FFCF73
S20601E9A81E0049
S80401E0001A
