S0110000626F6F746C6F616465722E68657850
S21401E0000C9490F00C94AFF00C94AFF00C94AFF02D
S21401E0100C94AFF00C94AFF00C94AFF00C94AFF0FE
S21401E0200C94AFF00C94AFF00C94AFF00C94AFF0EE
S21401E0300C94AFF00C94AFF00C94AFF00C94AFF0DE
S21401E0400C94AFF00C94AFF00C94AFF00C94AFF0CE
S21401E0500C94AFF00C94AFF00C94AFF00C94AFF0BE
S21401E0600C94AFF00C94AFF00C94AFF00C94AFF0AE
S21401E0700C94AFF00C94AFF00C94AFF00C94AFF09E
S21401E0800C94AFF00C94AFF00C94AFF00C94AFF08E
S21401E0900C94AFF00C94AFF00C94AFF00C94AFF07E
S21401E0A00C94AFF00C94AFF00C94AFF00C94AFF06E
S21401E0B00C94AFF00C94AFF00C94AFF00C94AFF05E
S21401E0C00C94AFF00C94AFF00C94AFF00C94AFF04E
S21401E0D00C94AFF00C94AFF00C94AFF00C94AFF03E
S21401E0E00C94AFF00C94AFF00C94AFF00C94AFF02E
S21401E0F00C94AFF00C94AFF00C94AFF00C94AFF01E
S21401E1000C94AFF00C94AFF00C94AFF00C94AFF00D
S21401E1100C94AFF00C94AFF00C94AFF00C94AFF0FD
S21401E12011241FBECFEFD1E4DEBFCDBF12E0A0E0C9
S21401E130B2E0E0EAF9EE01E00BBF02C007900D92F3
S21401E140A230B107D9F712E0A2E0B2E001C01D92F9
S21401E150AB30B107E1F70E943DF20C94CFF40C947A
S21401E16000F00F931F93CF93DF938C01EA01653480
S21401E170C9F488819981AA81BB8181BD292F3A2F53
S21401E1804B2F552722BD0196A11DB11D888399836A
S21401E190AA83BB83F89A80B50E948FF30150104082
S21401E1A041F73AC0663409F037C088819981AA815F
S21401E1B0BB81880F991FAA1FBB1F88839983AA83D7
S21401E1C0BB8388819981AA81BB81ABBFFC01879102
S21401E1D00E948FF388819981AA81BB810196A11D36
S21401E1E0B11DABBFFC0187910E948FF38881998195
S21401E1F0AA81BB810296A11DB11D88839983AA833A
S21401E200BB8302501040E9F6B695A795979587957A
S21401E21088839983AA83BB83DF91CF911F910F9146
S21401E22008954F925F926F927F928F929F92AF92D4
S21401E230BF92CF92DF92EF92FF920F931F93CF93ED
S21401E240DF93CDB7DEB7C058D0400FB6F894DEBF27
S21401E2500FBECDBF4C015A01653409F043C000E042
S21401E26010E008C00E949BF3FE01E00FF11F8183BE
S21401E2700F5F1F4F2401662477240815190591F7AF
S21401E28007B600FCFDCFCC24DD247601BE016F5F0E
S21401E2907F4F22C0F501208131814281538121BD0A
S21401E2A0BB27A52F942F832F82BDFB01EC0DFD1DEF
S21401E2B0808180BDFA9AF99AF999FECF2F5F3F4F78
S21401E2C04F4F5F4FF5012083318342835383089478
S21401E2D0C11CD11CE11CF11CC414D504E604F704CE
S21401E2E0C9F658C0663409F058C0FA01C080D1801A
S21401E2F0E280F380CC0CDD1CEE1CFF1CC082D182B8
S21401E300E282F3820E949BF3082F11270E949BF35F
S21401E310F501208131814281538161E09927982F4F
S21401E3208827082B192B0801F90140935B0060939D
S21401E3305700E89511242E5F3F4F4F4F5F4FF50171
S21401E34020833183428353838EEF9FEF880E991E7D
S21401E35081149104B9F6569547953795279520303F
S21401E36090EF390790E0490790E05907B0F485E04F
S21401E370F601E0925B0080935700E89507B600FC33
S21401E380FDCF81E180935700E895F5012083318325
S21401E390428353838DE090E002C08FE390E0C05843
S21401E3A0DF4F0FB6F894DEBF0FBECDBFDF91CF9122
S21401E3B01F910F91FF90EF90DF90CF90BF90AF909D
S21401E3C09F908F907F906F905F904F900895CF931E
S21401E3D0DF938FEF0E9465F4C0E0D0E026C080E9AD
S21401E3E091E00197F1F721503040C9F780E00E9493
S21401E3F065F428EE33E0E0E9F1E0CF010197F1F7AB
S21401E40021503040D1F78FEF0E9465F42196C3303A
S21401E410D10559F428EE33E0E0E9F1E0CF010197A8
S21401E420F1F721503040D1F703C028EE33E0D7CFC3
S21401E43080E00E9465F4E0E0F0E00995DF91CF917D
S21401E440089514BE88E10FB6F89480936000109288
S21401E45060000FBEE1E6F0E080E880838FE0808315
S21401E4600E947BF40E9455F40E945BF40E94D9F34B
S21401E47010920602109205020895CBEFD1E4DEBF9A
S21401E480CDBF0E9421F20E949BF3082F80910002CB
S21401E490909101020E9483F4013611F489E53CC192
S21401E4A00134A1F40E949BF3E82E0E949BF3FF2403
S21401E4B0FE2CEE249927E82AF92A0027F7FC009576
S21401E4C0102FE982FA820B831C83DCC00536A1F586
S21401E4D080E00E9465F40E945BF480E090E0A0E09A
S21401E4E0B0E023E007B600FCFDCFFC01A0935B0083
S21401E4F020935700E89580589F4FAF4FBF4F8F3FEF
S21401E5003FEE930730E0A30730E0B30758F3898363
S21401E5109A83AB83BC8380E29EE40197F1F78DE09A
S21401E5200E948FF380E00E9465F481E090E0909372
S21401E530060280930502A7CF023641F489E50E94C0
S21401E5408FF380E00E948FF380E8E6C00234E1F4A6
S21401E55081E090E090930802809307020E949BF36B
S21401E560082F0E949BF3E82E0E949BF31127102F81
S21401E5700027FF24AE014F5F5F4F682FC8018E2929
S21401E5809F290E9411F1C8C00736D1F410920802E3
S21401E590109207020E949BF3082F0E949BF3E82E1D
S21401E5A00E949BF31127102F0027FF24AE014F5F17
S21401E5B05F4F682FC8018E299F290E94B1F063CF53
S21401E5C00C3669F407B600FCFDCF0E949BF399E078
S21401E5D0E1E0F0E0082E90935700E89553C002372B
S21401E5E051F407B600FCFDCF89E0E1E0F0E080934E
S21401E5F05700849191C0063461F487B79927FC01CE
S21401E600E170F07080FDF9CF89E080935700849126
S21401E61083C00E3451F407B600FCFDCF89E0E3E079
S21401E620F0E080935700849177C0013551F407B626
S21401E63000FCFDCF89E0E2E0F0E080935700849192
S21401E6406BC00035F9F00C34E9F0053459F407B61F
S21401E65000FCFDCF81E180935700E8958DE00E9494
S21401E6608FF348C0003711F483E556C0043711F420
S21401E67080E052C0802F8857823010F0043521F494
S21401E6800E949BF38DE048C00335A1F481E40E940B
S21401E6908FF386E50E948FF382E50E948FF382E472
S21401E6A00E948FF38FE40E948FF38FE40E948FF312
S21401E6B084E532C0063529F481E30E948FF385E3B1
S21401E6C02BC0033741F481E00E948FF387EA0E9452
S21401E6D08FF38EE121C00F3FD9F480910002909113
S21401E6E00102009751F407B600FCFDCF81E180934B
S21401E6F05700E8950E94E7F1C6CE01979093010274
S21401E7008093000283709070892B09F0BCCE03C001
S21401E7100B3109F4B8CE8FE30E948FF3B4CE809309
S21401E720CE008091C80086FFFCCF8091C80080642F
S21401E7308093C80008958091050290910602892B66
S21401E74071F080E00E9465F48091070290910802C2
S21401E750892B19F00E9459F402C00E9457F480E2F6
S21401E7608093B60081E08093B10090E021E004C080
S21401E770B89B02C09F5F27BB8091C80087FD03C07E
S21401E7809F3FB1F70FC01092B6001092B1009F3FA5
S21401E79019F48FEF90E008950E9455F48091CE0011
S21401E7A0992708951092B6001092B1008FEF90E06D
S21401E7B0089560E072EC81E090E00E9434F490935A
S21401E7C00402809303028093CC001092CD0082E075
S21401E7D08093C80088E18093C90086E08093CA00D0
S21401E7E0089591E09093810080E28093B600909323
S21401E7F0B100AEEFEFEFFFEFB0E060E070E08091C8
S21401E800B2008823E1F74091840050918500809101
S21401E810B2008034E1F72091840030918500241BFA
S21401E820350BE217F30708F4F9012617370708F442
S21401E830B901CB018E1B9F0B039730F0B0E0EFEFD1
S21401E840FFEF60E070E003C0BF5FB23310F4A15089
S21401E850B0F630930A0220930902109281001092BA
S21401E860B6001092B1000895EF92FF920F931F9396
S21401E8707B018C010E94F1F36091090270910A02FA
S21401E8808827992726E016950795F794E7942A9501
S21401E890D1F7A80197010E94ADF4DA01C9010197E9
S21401E8A01F910F91FF90EF900895749A0895759AAD
S21401E8B00895769A0895779A0895749808957598A4
S21401E8C008957698089577980895992780FF02C04D
S21401E8D0749A01C0749881FF02C0759A01C0759838
S21401E8E082FF02C0769A01C0769883FF02C0779AAB
S21401E8F00895779808956C9A6D9A6E9A6F9A80E04B
S21401E9000E9465F408958430910510F08FE00AC0E6
S21401E9108330910511F487E005C0029710F083E07B
S21401E92001C081E00E9465F40895779B02C0779844
S21401E9300895779A0895749B02C074980895749AFE
S21401E9400895759B02C075980895759A0895769BEB
S21401E95002C076980895769A0895A1E21A2EAA1B07
S21401E960BB1BFD010DC0AA1FBB1FEE1FFF1FA21779
S21401E970B307E407F50720F0A21BB30BE40BF50B76
S21401E980661F771F881F991F1A9469F760957095FF
S21401E990809590959B01AC01BD01CF010895FFCFF5
S20601E9A005006A
S80401E0001A
