S0110000626F6F746C6F616465722E68657850
S21401E0000C9490F00C94AFF00C94AFF00C94AFF02D
S21401E0100C94AFF00C94AFF00C94AFF00C94AFF0FE
S21401E0200C94AFF00C94AFF00C94AFF00C94AFF0EE
S21401E0300C94AFF00C94AFF00C94AFF00C94AFF0DE
S21401E0400C94AFF00C94AFF00C94AFF00C94AFF0CE
S21401E0500C94AFF00C94AFF00C94AFF00C94AFF0BE
S21401E0600C94AFF00C94AFF00C94AFF00C94AFF0AE
S21401E0700C94AFF00C94AFF00C94AFF00C94AFF09E
S21401E0800C94AFF00C94AFF00C94AFF00C94AFF08E
S21401E0900C94AFF00C94AFF00C94AFF00C94AFF07E
S21401E0A00C94AFF00C94AFF00C94AFF00C94AFF06E
S21401E0B00C94AFF00C94AFF00C94AFF00C94AFF05E
S21401E0C00C94AFF00C94AFF00C94AFF00C94AFF04E
S21401E0D00C94AFF00C94AFF00C94AFF00C94AFF03E
S21401E0E00C94AFF00C94AFF00C94AFF00C94AFF02E
S21401E0F00C94AFF00C94AFF00C94AFF00C94AFF01E
S21401E1000C94AFF00C94AFF00C94AFF00C94AFF00D
S21401E1100C94AFF00C94AFF00C94AFF00C94AFF0FD
S21401E12011241FBECFEFD1E4DEBFCDBF12E0A0E0C9
S21401E130B2E0E0E2F9EE01E00BBF02C007900D92FB
S21401E140A230B107D9F712E0A2E0B2E001C01D92F9
S21401E150AE30B107E1F70E9428F20C948FF40C94CC
S21401E16000F08EB187718EB940E050E01BC080E9A7
S21401E17091E00197F1F721503040C9F78EB1886ED2
S21401E1808EB9E8EEF3E0A0E9B1E0CD010197F1F731
S21401E1903197D9F78EB187718EB94F5F5F4F433094
S21401E1A0510519F028EE33E0E2CF09950895833141
S21401E1B091051CF08EB1886E13C08D3091052CF040
S21401E1C08EB1806E8EB973980895079734F08EB12C
S21401E1D080668EB98EB1877703C0759A8EB18773C4
S21401E1E08EB908950F931F93CF93DF938C01EA01A5
S21401E1F06534C9F488819981AA81BB8181BD292FA3
S21401E2003A2F4B2F552722BD0196A11DB11D88839C
S21401E2109983AA83BB83F89A80B50E9492F3015032
S21401E220104041F73AC0663409F037C088819981B9
S21401E230AA81BB81880F991FAA1FBB1F8883998358
S21401E240AA83BB8388819981AA81BB81ABBFFC016C
S21401E25087910E9492F388819981AA81BB81019658
S21401E260A11DB11DABBFFC0187910E9492F388816D
S21401E2709981AA81BB810296A11DB11D88839983CC
S21401E280AA83BB8302501040E9F6B695A7959795E9
S21401E290879588839983AA83BB83DF91CF911F914A
S21401E2A00F9108954F925F926F927F928F929F92F5
S21401E2B0AF92BF92CF92DF92EF92FF920F931F938E
S21401E2C0CF93DF93CDB7DEB7C058D0400FB6F894E2
S21401E2D0DEBF0FBECDBF4C015A01653409F043C005
S21401E2E000E010E008C00E949EF3FE01E00FF11F5F
S21401E2F081830F5F1F4F24016624772408151905B3
S21401E30091F707B600FCFDCFCC24DD247601BE01D3
S21401E3106F5F7F4F22C0F501208131814281538199
S21401E32021BDBB27A52F942F832F82BDFB01EC0DAA
S21401E330FD1D808180BDFA9AF99AF999FECF2F5F6B
S21401E3403F4F4F4F5F4FF501208331834283538305
S21401E3500894C11CD11CE11CF11CC414D504E604AC
S21401E360F704C9F658C0663409F058C0FA01C080EF
S21401E370D180E280F380CC0CDD1CEE1CFF1CC08239
S21401E380D182E282F3820E949EF3082F11270E9417
S21401E3909EF3F501208131814281538161E0992705
S21401E3A0982F8827082B192B0801F90140935B0049
S21401E3B060935700E89511242E5F3F4F4F4F5F4FF4
S21401E3C0F50120833183428353838EEF9FEF880EBE
S21401E3D0991E81149104B9F6569547953795279558
S21401E3E0203090EF390790E0490790E05907B0F4E4
S21401E3F085E0F601E0925B0080935700E89507B64A
S21401E40000FCFDCF81E180935700E895F50120835C
S21401E4103183428353838DE090E002C08FE390E026
S21401E420C058DF4F0FB6F894DEBF0FBECDBFDF91E9
S21401E430CF911F910F91FF90EF90DF90CF90BF90FB
S21401E440AF909F908F907F906F905F904F900895C0
S21401E450CBEFD1E4DEBFCDBF14BE88E10FB6F89492
S21401E46080936000109260000FBE80E88093610088
S21401E4708FE0809361006B9A6D9A6E9A6F9A6C9892
S21401E48027988EB188688EB90E94F1F31092050222
S21401E490109204020E949EF3082F80910002909130
S21401E4A001020E94D7F0013611F489E538C1013422
S21401E4B0A1F40E949EF3E82E0E949EF3FF24FE2CF8
S21401E4C0EE249927E82AF92A0027F7FC0095102F51
S21401E4D0E982FA820B831C83D8C0053681F51EB803
S21401E4E080E88EB980E090E0A0E0B0E023E007B6D7
S21401E4F000FCFDCFFC01A0935B0020935700E8953C
S21401E50080589F4FAF4FBF4F8F3F3FEE930730E08E
S21401E510A30730E0B30758F389839A83AB83BC83A0
S21401E52080E29EE40197F1F78DE00E9492F31EB817
S21401E53081E090E09093050280930402ABCF02360F
S21401E54041F489E50E9492F380E00E9492F380E80C
S21401E550E6C00234E1F481E090E090930B028093F0
S21401E5600A020E949EF3082F0E949EF3E82E0E9444
S21401E5709EF31127102F0027FF24AE014F5F5F4F38
S21401E580682FC8018E299F290E9452F1C8C00736FC
S21401E590D1F410920B0210920A020E949EF3082FE9
S21401E5A00E949EF3E82E0E949EF31127102F00274B
S21401E5B0FF24AE014F5F5F4F682FC8018E299F2948
S21401E5C00E94F2F067CF0C3669F407B600FCFDCF67
S21401E5D00E949EF399E0E1E0F0E0082E9093570048
S21401E5E0E89553C0023751F407B600FCFDCF89E029
S21401E5F0E1E0F0E080935700849191C0063461F425
S21401E60087B79927FC01E170F07080FDF9CF89E0AA
S21401E61080935700849183C00E3451F407B600FCF2
S21401E620FDCF89E0E3E0F0E080935700849177C066
S21401E630013551F407B600FCFDCF89E0E2E0F0E0D9
S21401E6408093570084916BC00035F9F00C34E9F0E3
S21401E650053459F407B600FCFDCF81E180935700DD
S21401E660E8958DE00E9492F348C0003711F483E5E7
S21401E67056C0043711F480E052C0802F885782308C
S21401E68010F0043521F40E949EF38DE048C0033556
S21401E690A1F481E40E9492F386E50E9492F382E55A
S21401E6A00E9492F382E40E9492F38FE40E9492F316
S21401E6B08FE40E9492F384E532C0063529F481E3A3
S21401E6C00E9492F385E32BC0033741F481E00E9458
S21401E6D092F387EA0E9492F38EE121C00F3FD9F4AC
S21401E6E08091000290910102009751F407B600FC58
S21401E6F0FDCF81E180935700E8950E94B1F0CACE24
S21401E7000197909301028093000283709070892B89
S21401E71009F0C0CE03C00B3109F4BCCE8FE30E94D2
S21401E72092F3B8CE8093CE008091C80086FFFCCFCE
S21401E7308091C80080648093C80008958091040287
S21401E74090910502892B59F080910A0290910B0253
S21401E750892B11F080E401C080E28EB9739880E8BD
S21401E76098E3A1E0B0E08093060290930702A0939D
S21401E7700802B093090220E838E341E050E08091B6
S21401E780C80087FD19C0DA01C9010197A109B109BD
S21401E7908F3F6FEF96076FEFA6076FEFB60719F07B
S21401E7A09C01AD01ECCF2093060230930702409303
S21401E7B00802509309020DC0209306023093070207
S21401E7C04093080250930902211531054105510570
S21401E7D019F48FEF90E00895739A8091CE009927EF
S21401E7E0089560E072EC81E090E00E944CF4909312
S21401E7F00302809302028093CC001092CD0082E047
S21401E8008093C80088E18093C90086E08093CA009F
S21401E810089591E09093810080E28093B6009093F2
S21401E820B100AEEFEFEFFFEFB0E060E070E0809197
S21401E830B2008823E1F740918400509185008091D1
S21401E840B2008034E1F72091840030918500241BCA
S21401E850350BE217F30708F4F9012617370708F412
S21401E860B901CB018E1B9F0B039730F0B0E0EFEFA1
S21401E870FFEF60E070E003C0BF5FBA3010F4A15054
S21401E880B0F630930D0220930C0210928100109284
S21401E890B6001092B1000895EF92FF920F931F9366
S21401E8A07B018C010E9409F460910C0270910D02AB
S21401E8B08827992726E016950795F794E7942A95D1
S21401E8C0D1F7A80197010E946DF4DA01C9010197F9
S21401E8D01F910F91FF90EF900895A1E21A2EAA1BA7
S21401E8E0BB1BFD010DC0AA1FBB1FEE1FFF1FA217FA
S21401E8F0B307E407F50720F0A21BB30BE40BF50BF7
S21401E900661F771F881F991F1A9469F7609570957F
S21401E910809590959B01AC01BD01CF010895FFCF75
S20601E9201800D7
S80401E0001A
