S0110000626F6F746C6F616465722E68657850
S21401E0000C9466F00C9485F00C9485F00C9485F0D5
S21401E0100C9485F00C9485F00C9485F00C9485F0A6
S21401E0200C9485F00C9485F00C9485F00C9485F096
S21401E0300C9485F00C9485F00C9485F00C9485F086
S21401E0400C9485F00C9485F00C9485F00C9485F076
S21401E0500C9485F00C9485F00C9485F00C9485F066
S21401E0600C9485F00C9485F00C9485F00C9485F056
S21401E0700C9485F00C9485F00C9485F00C9485F046
S21401E0800C9485F00C9485F00C9485F00C9485F036
S21401E0900C9485F00C9485F00C9485F00C9485F026
S21401E0A00C9485F00C9485F00C9485F00C9485F016
S21401E0B00C9485F00C9485F00C9485F00C9485F006
S21401E0C00C9485F00C9485F00C9485F011241FBEF9
S21401E0D0CFEFD1E2DEBFCDBF12E0A0E0B2E0EAE5CD
S21401E0E0F9EE01E00BBF02C007900D92A230B10716
S21401E0F0D9F712E0A2E0B2E001C01D92AA30B10742
S21401E100E1F70E94B0F10C94ABF40C9400F022B14C
S21401E110276022B922B16AE070E00E9462F46F5F64
S21401E1206095262322B908950F931F93CF93DF930B
S21401E1308C01EA016534C9F488819981AA81BB8181
S21401E14081BD292F3A2F4B2F552722BD0196A11DA0
S21401E150B11D88839983AA83BB83F89A80B50E94F0
S21401E160A3F30150104041F73AC0663409F037C0B6
S21401E17088819981AA81BB81880F991FAA1FBB1F1D
S21401E18088839983AA83BB8388819981AA81BB816D
S21401E190ABBFFC0187910E94A3F388819981AA8174
S21401E1A0BB810196A11DB11DABBFFC0187910E94E9
S21401E1B0A3F388819981AA81BB810296A11DB11D15
S21401E1C088839983AA83BB8302501040E9F6B695EB
S21401E1D0A7959795879588839983AA83BB83DF91B3
S21401E1E0CF911F910F9108955F926F927F928F92B8
S21401E1F09F92AF92BF92CF92DF92EF92FF920F93D0
S21401E2001F93DF93CF93CDB7DEB7C058D0400FB67C
S21401E210F894DEBF0FBECDBF3C014A016534B9F5A7
S21401E2207E010894E11CF11C67015701A80EB91E76
S21401E23005C00E94AFF3F60181936F01CA14DB0497
S21401E240C1F707B600FCFDCF1EC0F4012081318165
S21401E2504281538121BDBB27A52F942F832F82BDD9
S21401E260F701808180BDFA9AF99AF999FECF2F5F5E
S21401E2703F4F4F4F5F4FF4012083318342835383D7
S21401E2800894E11CF11CEC14FD04F9F651C0663447
S21401E29011F08FE34EC0FA01A080B180C280D38016
S21401E2A0AA0CBB1CCC1CDD1CA082B182C282D3820C
S21401E2B0552453940E94AFF3082F10E00E94AFF349
S21401E2C0F4012081318142815381F82EEE240E29FA
S21401E2D01F290801F90140935B0050925700E89509
S21401E2E011242E5F3F4F4F4F5F4FF4012083318340
S21401E2F0428353838EEF9FEF680E791E611471047B
S21401E300C9F685E0F501C0925B0080935700E89559
S21401E31007B600FCFDCF81E180935700E89556953E
S21401E320479537952795F40120833183428353839C
S21401E3308DE0C058DF4F0FB6F894DEBF0FBECDBFDD
S21401E340CF91DF911F910F91FF90EF90DF90CF90CB
S21401E350BF90AF909F908F907F906F905F90089541
S21401E3602F923F924F925F926F927F928F929F92DF
S21401E370AF92BF92CF92DF92EF92FF920F931F93CD
S21401E380DF93CF9300D000D0CDB7DEB70A9A099AB3
S21401E390089A60E07BE480E090E00E9441F490936C
S21401E3A00302809302020E949BF3A1E15A2E09E028
S21401E3B0F5E04F2E1E010894211C311C0E94AFF37C
S21401E3C0182F80910002909101020E9487F0113669
S21401E3D011F489E5ADC1113479F40E94AFF3182F19
S21401E3E00E94AFF3D12ECC2490E08C299D29AA2738
S21401E3F097FDA095BA2F9EC01536E1F480E090E017
S21401E400A0E0B0E00EC007B600FCFDCF23E0FC01A3
S21401E410A0935B0020935700E89580589F4FAF4F1D
S21401E420BF4F803A66E8960761E0A60760E0B60748
S21401E43050F380C0123641F489E50E94A3F380E0D0
S21401E4400E94A3F380E874C1123499F40E94AFF3DA
S21401E450182F0E94AFF3B12EAA24E82EFF24EA2833
S21401E460FB280E94AFF3682FC701A1010E94F4F0B8
S21401E4705FC1173699F40E94AFF3182F0E94AFF3CD
S21401E480912E8824E82EFF24E828F9280E94AFF36D
S21401E490682FC701A1010E9494F090CF123511F5A3
S21401E4A007B600FCFDCF50925700E89589819A8106
S21401E4B0AB81BC81880F991FAA1FBB1F0196A11DA6
S21401E4C0B11DABBFFC0187910E94A3F389819A819C
S21401E4D0AB81BC81880F991FAA1FBB1FABBFFC0174
S21401E4E0879176C0133629F40E94AFF3E82EFF24F5
S21401E4F0D9C0133421F50E94AFF3782E6624E6289E
S21401E500F72807B600FCFDCF89819A81AB81BC81D3
S21401E5109C01AD01220F331F441F551F61E0070107
S21401E520F90140935B0060935700E895112401962A
S21401E530A11DB11D89839A83AB83BC83B3C01D36ED
S21401E540F1F489819A81AB81BC818035E3EC9E0729
S21401E550E0E0AE07E0E0BE0720F08FE30E94A3F301
S21401E560A1C007B600FCFDCF880F991FAA1FBB1FCD
S21401E570FC01A0935B0040925700E89593C01434C9
S21401E580C9F407B600FCFDCF89819A81AB81BC81B5
S21401E59081BD892F9A2FAB2FBB2782BD0E94AFF377
S21401E5A080BDFA9AF99AF999FECF89819A81AB8151
S21401E5B0BC81BDCF1436D1F489819A81AB81BC81EF
S21401E5C081BD892F9A2FAB2FBB2782BDF89A80B5C4
S21401E5D00E94A3F389819A81AB81BC810196A11D1A
S21401E5E0B11D89839A83AB83BC83E8CE1C3661F464
S21401E5F007B600FCFDCF0E94AFF3E1E0F0E0082E85
S21401E60000935700E8954EC0123749F407B600FC50
S21401E610FDCFE1E0F0E000935700849189C0163405
S21401E62059F487B790E0FC01E170F07080FDF9CFF6
S21401E6300093570084917CC01E3449F407B600FC51
S21401E640FDCFE3E0F0E000935700849171C01135EF
S21401E65049F407B600FCFDCFE2E0F0E00093570076
S21401E660849166C01035F1F01C34E1F0153451F494
S21401E67007B600FCFDCF50925700E8958DE00E944A
S21401E680A3F348C0103711F483E552C0143711F4D0
S21401E69080E04EC0812F8857823010F0143521F467
S21401E6A00E94AFF38DE044C01335A1F481E40E94CB
S21401E6B0A3F386E50E94A3F382E50E94A3F382E416
S21401E6C00E94A3F38FE40E94A3F38FE40E94A3F3B6
S21401E6D084E52EC0163529F481E30E94A3F385E371
S21401E6E027C0133741F484E00E94A3F387E90E9410
S21401E6F0A3F38EE11DC01F3FB9F4809100029091F3
S21401E7000102009759F4129A07B600FCFDCF509209
S21401E7105700E895E0E0F0E0099550CE0197909318
S21401E72001028093000203C01B3109F447CE8FE338
S21401E7300E94A3F343CE809102028093C40088E135
S21401E7408093C10008958093C6008091C00086FF23
S21401E750FCCF8091C00080648093C000089580EA59
S21401E76096E8A1E0B0E08093040290930502A0939E
S21401E7700602B093070220EA36E841E050E004C002
S21401E78021503040404050408091C00087FF09C072
S21401E7902093040230930502409306025093070229
S21401E7A00DC0211531054105510551F7109204029E
S21401E7B0109205021092060210920702809104023E
S21401E7C090910502A0910602B09107020097A1055B
S21401E7D0B10511F48FEF08958091C600089581E088
S21401E7E08093810080E28093B60083E08093B1003D
S21401E7F020918400309185004AE7809184009091B1
S21401E80085008217930708F441509C014423A9F719
S21401E8109091B2008091B2008917E1F320918400B3
S21401E820309185009091B2008091B2008917E1F392
S21401E8308091840090918500821B930B409625E081
S21401E840969587952A95E1F7909309028093080299
S21401E8501092B1008091B100809381008091810077
S21401E8608093B6001092B200109285001092840038
S21401E8708FEF87BB87B386BB8091B6008571E1F7C2
S21401E8800895EF92FF920F931F937B018C010E94D4
S21401E890EFF36091080270910902882799273BE0FF
S21401E8A0660F771F881F991F3A95D1F7A801970120
S21401E8B00E9475F4DA01C90101971F910F91FF902B
S21401E8C0EF90089597FB092E07260AD077FD04D00E
S21401E8D02ED006D000201AF4709561957F4F0895CA
S21401E8E0F6F7909581959F4F0895A1E21A2EAA1BDF
S21401E8F0BB1BFD010DC0AA1FBB1FEE1FFF1FA217EA
S21401E900B307E407F50720F0A21BB30BE40BF50BE6
S21401E910661F771F881F991F1A9469F7609570956F
S21401E920809590959B01AC01BD01CF010895AA1B6E
S21401E930BB1B51E107C0AA1FBB1FA617B70710F0E4
S21401E940A61BB70B881F991F5A95A9F78095909516
S20E01E950BC01CD010895F894FFCF35
S20601E95A1E0097
S80401E0001A
