:020000021000EC
:10E000000C9466F00C9485F00C9485F00C9485F0DB
:10E010000C9485F00C9485F00C9485F00C9485F0AC
:10E020000C9485F00C9485F00C9485F00C9485F09C
:10E030000C9485F00C9485F00C9485F00C9485F08C
:10E040000C9485F00C9485F00C9485F00C9485F07C
:10E050000C9485F00C9485F00C9485F00C9485F06C
:10E060000C9485F00C9485F00C9485F00C9485F05C
:10E070000C9485F00C9485F00C9485F00C9485F04C
:10E080000C9485F00C9485F00C9485F00C9485F03C
:10E090000C9485F00C9485F00C9485F00C9485F02C
:10E0A0000C9485F00C9485F00C9485F00C9485F01C
:10E0B0000C9485F00C9485F00C9485F00C9485F00C
:10E0C0000C9485F00C9485F00C9485F011241FBEFF
:10E0D000CFEFD1E2DEBFCDBF12E0A0E0B2E0EAE7D1
:10E0E000F9EE01E00BBF02C007900D92A230B1071C
:10E0F000D9F712E0A2E0B2E001C01D92AA30B10748
:10E10000E1F70E94C5F10C94BCF40C9400F022B12C
:10E11000276022B922B16AE070E00E9473F46F5F59
:10E120006095262322B908950F931F93CF93DF9311
:10E130008C01EA016534C9F488819981AA81BB8187
:10E1400081BD292F3A2F4B2F552722BD0196A11DA6
:10E15000B11D88839983AA83BB83F89A80B50E94F6
:10E16000B3F30150104041F73EC0663409F03BC0A4
:10E1700088819981AA81BB81880F991FAA1FBB1F23
:10E1800088839983AA83BB8388819981AA81BB8173
:10E19000ABBFF92FE82FD895802D0E94B3F388816B
:10E1A0009981AA81BB810196A11DB11DABBFF92F39
:10E1B000E82FD895802D0E94B3F388819981AA8198
:10E1C000BB810296A11DB11D88839983AA83BB835D
:10E1D00002501040C9F6B695A79597958795888304
:10E1E0009983AA83BB83DF91CF911F910F910895EB
:10E1F0004F925F926F927F928F929F92AF92BF9257
:10E20000CF92DF92EF92FF920F931F93CF93DF9302
:10E21000CDB7DEB7C058D0400FB6F894DEBF0FBE02
:10E22000CDBF4C015A01653409F043C000E010E055
:10E2300008C00E94BFF3FE01E00FF11F81830F5F52
:10E240001F4F2401662477240815190591F707B696
:10E2500000FCFDCFCC24DD247601BE016F5F7F4F33
:10E2600022C0F501208131814281538121BDBB272C
:10E27000A52F942F832F82BDFB01EC0DFD1D808106
:10E2800080BDFA9AF99AF999FECF2F5F3F4F4F4F11
:10E290005F4FF50120833183428353830894C11C6F
:10E2A000D11CE11CF11CC414D504E604F704C9F622
:10E2B00052C0663419F08FE390E04FC0FA01C0807D
:10E2C000D180E280F380CC0CDD1CEE1CFF1CC082F0
:10E2D000D182E282F3820E94BFF3082F11270E94AD
:10E2E000BFF3F501208131814281538161E099279B
:10E2F000982F8827082B192B0801F90140935B0000
:10E3000060935700E89511242E5F3F4F4F4F5F4FAA
:10E31000F50120833183428353838EEF9FEF880E74
:10E32000991E81149104B9F685E0F601E0925B0034
:10E3300080935700E89507B600FCFDCF81E18093FC
:10E340005700E8955695479537952795F501208311
:10E350003183428353838DE090E0C058DF4F0FB686
:10E36000F894DEBF0FBECDBFDF91CF911F910F910B
:10E37000FF90EF90DF90CF90BF90AF909F908F90E5
:10E380007F906F905F904F900895CBEFD1E2DEBF0A
:10E39000CDBF0A9A099A089A60E07BE480E090E099
:10E3A0000E9452F490930302809302020E94ABF306
:10E3B0000E94BFF3082F80910002909101020E94F9
:10E3C00087F0013611F489E5C3C10134A1F40E943C
:10E3D000BFF3E82E0E94BFF3FF24FE2CEE24992702
:10E3E000E82AF92A0027F7FC0095102FE982FA8223
:10E3F0000B831C8320C0053601F580E090E0A0E08F
:10E40000B0E023E007B600FCFDCFFC01A0935B0069
:10E4100020935700E89580589F4FAF4FBF4F803AE9
:10E4200036E8930731E0A30730E0B30758F3898358
:10E430009A83AB83BC838DE08BC1023641F489E5BE
:10E440000E94B3F380E00E94B3F380E881C10234FC
:10E45000A9F40E94BFF3082F0E94BFF31127D02E0A
:10E46000CC249927C82AD92A0E94BFF3AE014F5F56
:10E470005F4F682FC6010E94F8F06AC10736A9F401
:10E480000E94BFF3082F0E94BFF31127D02ECC2487
:10E490009927C82AD92A0E94BFF3AE014F5F5F4F68
:10E4A000682FC6010E9494F083CF023539F507B674
:10E4B00000FCFDCF81E180935700E89589819A8126
:10E4C000AB81BC81880F991FAA1FBB1F0196A11D9C
:10E4D000B11DABBFF92FE82FD895802D0E94B3F363
:10E4E00089819A81AB81BC81880F991FAA1FBB1FAC
:10E4F000ABBFF92FE82FD895802D74C0033629F4CF
:10E500000E94BFF3C82EDD2496CF0334F1F40E949D
:10E51000BFF39927982F8827C82AD92A07B600FC65
:10E52000FDCF89819A81AB81BC8161E09C01AD0105
:10E53000220F331F441F551F0601F90140935B0052
:10E5400060935700E89511243BC00D36F9F42981FA
:10E550003A814B815C81203583EC380780E04807A5
:10E5600080E0580720F08FE30E94B3F364CF07B632
:10E5700000FCFDCF85E0220F331F441F551FF9011A
:10E5800040935B0080935700E89555CF0434E1F445
:10E5900007B600FCFDCF89819A81AB81BC8181BD2A
:10E5A000892F9A2FAB2FBB2782BD0E94BFF380BD5E
:10E5B000FA9AF99AF999FECF89819A81AB81BC8147
:10E5C0000196A11DB11D33CF0436D1F489819A8102
:10E5D000AB81BC8181BD892F9A2FAB2FBB2782BD18
:10E5E000F89A80B50E94B3F389819A81AB81BC818E
:10E5F0000196A11DB11D89839A83AB83BC83D8CEBC
:10E600000C3669F407B600FCFDCF0E94BFF399E019
:10E61000E1E0F0E0082E90935700E8950CCF023728
:10E6200051F407B600FCFDCF89E0E1E0F0E0809313
:10E63000570084918DC0063451F407B600FCFDCF1D
:10E6400089E0E0E0F0E080935700849181C00E34CF
:10E6500051F407B600FCFDCF89E0E3E0F0E08093E1
:10E660005700849175C0013551F407B600FCFDCF09
:10E6700089E0E2E0F0E080935700849169C00035C2
:10E6800009F4D9CE0C3409F4D6CE053459F407B6C2
:10E6900000FCFDCF81E180935700E8958DE00E945A
:10E6A000B3F348C0003711F483E552C0043711F4C6
:10E6B00080E04EC0802F8857823010F0043519F466
:10E6C0000E94BFF3B8CE0335A1F481E40E94B3F3F6
:10E6D00086E50E94B3F382E50E94B3F382E40E94D0
:10E6E000B3F38FE40E94B3F38FE40E94B3F384E5A5
:10E6F0002FC0063529F481E30E94B3F385E328C0D7
:10E70000033741F484E00E94B3F387E90E94B3F336
:10E710008EE11EC00F3FC1F4809100029091010272
:10E72000009761F4129A07B600FCFDCF81E1809357
:10E730005700E895E0E0F0E009953ACE0197909314
:10E7400001028093000203C00B3109F431CE8FE344
:10E750000E94B3F32DCE809102028093C40088E121
:10E760008093C10008958093C6008091C00086FF09
:10E77000FCCF8091C00080648093C000089580EA3F
:10E7800096E8A1E0B0E08093040290930502A09384
:10E790000602B093070220EA36E841E050E080919B
:10E7A000C00087FD19C0DA01C9010197A109B109AB
:10E7B0008F3F6FEF96076FEFA6076FEFB60719F061
:10E7C0009C01AD01ECCF20930402309305024093ED
:10E7D0000602509307020DC02093040230930502F5
:10E7E000409306025093070221153105410551055A
:10E7F00019F48FEF90E008958091C600992708954D
:10E8000081E08093810080E28093B60083E0809372
:10E81000B10020918400309185004AE78091840006
:10E82000909185008217930708F441509C0144237E
:10E83000A9F79091B2008091B2008917E1F320917D
:10E840008400309185009091B2008091B2008917C8
:10E85000E1F38091840090918500821B930B409698
:10E8600025E0969587952A95E1F790930902809384
:10E8700008021092B1008091B100809381008091D4
:10E8800081008093B6001092B20010928500109221
:10E8900084008FEF87BB87B386BB8091B6008571FC
:10E8A000E1F70895EF92FF920F931F937B018C0184
:10E8B0000E9400F46091080270910902882799274C
:10E8C0003BE0660F771F881F991F3A95D1F7A80183
:10E8D00097010E9486F4DA01C90101971F910F91F7
:10E8E000FF90EF90089597FB092E07260AD077FD39
:10E8F00004D02ED006D000201AF4709561957F4F79
:10E900000895F6F7909581959F4F0895A1E21A2EEC
:10E91000AA1BBB1BFD010DC0AA1FBB1FEE1FFF1FC3
:10E92000A217B307E407F50720F0A21BB30BE40B13
:10E93000F50B661F771F881F991F1A9469F760955A
:10E940007095809590959B01AC01BD01CF01089514
:10E95000AA1BBB1B51E107C0AA1FBB1FA617B70705
:10E9600010F0A61BB70B881F991F5A95A9F7809521
:0AE970009095BC01CD010895FFCF82
:02E97A001E007D
:040000031000E00009
:00000001FF
