S0110000626F6F746C6F616465722E68657850
S21401E0000C9490F00C94AFF00C94AFF00C94AFF02D
S21401E0100C94AFF00C94AFF00C94AFF00C94AFF0FE
S21401E0200C94AFF00C94AFF00C94AFF00C94AFF0EE
S21401E0300C94AFF00C94AFF00C94AFF00C94AFF0DE
S21401E0400C94AFF00C94AFF00C94AFF00C94AFF0CE
S21401E0500C94AFF00C94AFF00C94AFF00C94AFF0BE
S21401E0600C94AFF00C94AFF00C94AFF00C94AFF0AE
S21401E0700C94AFF00C94AFF00C94AFF00C94AFF09E
S21401E0800C94AFF00C94AFF00C94AFF00C94AFF08E
S21401E0900C94AFF00C94AFF00C94AFF00C94AFF07E
S21401E0A00C94AFF00C94AFF00C94AFF00C94AFF06E
S21401E0B00C94AFF00C94AFF00C94AFF00C94AFF05E
S21401E0C00C94AFF00C94AFF00C94AFF00C94AFF04E
S21401E0D00C94AFF00C94AFF00C94AFF00C94AFF03E
S21401E0E00C94AFF00C94AFF00C94AFF00C94AFF02E
S21401E0F00C94AFF00C94AFF00C94AFF00C94AFF01E
S21401E1000C94AFF00C94AFF00C94AFF00C94AFF00D
S21401E1100C94AFF00C94AFF00C94AFF00C94AFF0FD
S21401E12011241FBECFEFD1E4DEBFCDBF12E0A0E0C9
S21401E130B2E0E2EEF9EE01E00BBF02C007900D92ED
S21401E140A230B107D9F712E0A2E0B2E001C01D92F9
S21401E150AC30B107E1F70E941FF20C94F0F40C9476
S21401E16000F08EB187718EB940E050E01BC080E9A7
S21401E17091E00197F1F721503040C9F78EB1886ED2
S21401E1808EB9E8EEF3E0A0E9B1E0CD010197F1F731
S21401E1903197D9F78EB187718EB94F5F5F4F433094
S21401E1A0510519F028EE33E0E2CF09950895803144
S21401E1B091051CF08EB1886E13C08B3091052CF042
S21401E1C08EB1806E8EB973980895069734F08EB12D
S21401E1D080668EB98EB1877703C0759A8EB18773C4
S21401E1E08EB908950F931F93CF93DF938C01EA01A5
S21401E1F06534C9F488819981AA81BB8181BD292FA3
S21401E2003A2F4B2F552722BD0196A11DB11D88839C
S21401E2109983AA83BB83F89A80B50E9418F40150AB
S21401E220104041F73AC0663409F037C088819981B9
S21401E230AA81BB81880F991FAA1FBB1F8883998358
S21401E240AA83BB8388819981AA81BB81ABBFFC016C
S21401E25087910E9418F488819981AA81BB810196D1
S21401E260A11DB11DABBFFC0187910E9418F48881E6
S21401E2709981AA81BB810296A11DB11D88839983CC
S21401E280AA83BB8302501040E9F6B695A7959795E9
S21401E290879588839983AA83BB83DF91CF911F914A
S21401E2A00F9108954F925F926F927F928F929F92F5
S21401E2B0AF92BF92CF92DF92EF92FF920F931F938E
S21401E2C0CF93DF93CDB7DEB7C058D0400FB6F894E2
S21401E2D0DEBF0FBECDBF4C015A01653409F043C005
S21401E2E000E010E008C00E9424F4FE01E00FF11FD8
S21401E2F081830F5F1F4F24016624772408151905B3
S21401E30091F707B600FCFDCFCC24DD247601BE01D3
S21401E3106F5F7F4F22C0F501208131814281538199
S21401E32021BDBB27A52F942F832F82BDFB01EC0DAA
S21401E330FD1D808180BDFA9AF99AF999FECF2F5F6B
S21401E3403F4F4F4F5F4FF501208331834283538305
S21401E3500894C11CD11CE11CF11CC414D504E604AC
S21401E360F704C9F652C0663419F08FE390E04FC047
S21401E370FA01C080D180E280F380CC0CDD1CEE1C5B
S21401E380FF1CC082D182E282F3820E9424F4082F0D
S21401E39011270E9424F4F5012081318142815381A5
S21401E3A061E09927982F8827082B192B0801F90176
S21401E3B040935B0060935700E89511242E5F3F4F12
S21401E3C04F4F5F4FF50120833183428353838EEF96
S21401E3D09FEF880E991E81149104B9F685E0F60127
S21401E3E0E0925B0080935700E89507B600FCFDCFEE
S21401E3F081E180935700E89556954795379527957F
S21401E400F50120833183428353838DE090E0C05829
S21401E410DF4F0FB6F894DEBF0FBECDBFDF91CF91B1
S21401E4201F910F91FF90EF90DF90CF90BF90AF902C
S21401E4309F908F907F906F905F904F900895CBEF55
S21401E440D1E4DEBFCDBF6B9A6D9A6E9A6F9A6C98C7
S21401E45027980E946DF41092050210920402CC24B3
S21401E460DD240E9424F4082F80910002909101027D
S21401E4700E94D7F0013611F489E5D7C10134A1F421
S21401E4800E9424F4E82E0E9424F4FF24FE2CEE249D
S21401E4909927E82AF92A0027F7FC0095102FE98228
S21401E4A0FA820B831C837CC10536A9F584E690E0CD
S21401E4B090930102809300021EB8779A80E090E064
S21401E4C0A0E0B0E023E007B600FCFDCFFC01A0937E
S21401E4D05B0020935700E89580589F4FAF4FBF4F82
S21401E4E0803030EF930730E0A30730E0B30758F3EE
S21401E4F089839A83AB83BC8380EA9FE00197F1F717
S21401E5008DE00E9418F41EB881E090E09093050219
S21401E51080930402A6CF023641F489E50E9418F4DE
S21401E52080E00E9418F480E880C10234A9F40E94B9
S21401E53024F4082F0E9424F41127D02ECC249927E6
S21401E540C82AD92A0E9424F4AE014F5F5F4F682F74
S21401E550C6010E9452F169C10736A9F40E9424F44B
S21401E560082F0E9424F41127D02ECC249927C82ADC
S21401E570D92A0E9424F4AE014F5F5F4F682FC6016F
S21401E5800E94F2F06ECF023519F507B600FCFDCFFA
S21401E59081E180935700E89589819A81AB81BC819E
S21401E5A0880F991FAA1FBB1F0196A11DB11DABBFE6
S21401E5B0FC0187910E9418F489819A81AB81BC8104
S21401E5C0880F991FAA1FBB1FABBFFC01879178C09C
S21401E5D0033629F40E9424F4C82EDD24E1C0033456
S21401E5E0F1F40E9424F49927982F8827C82AD92A5B
S21401E5F007B600FCFDCF89819A81AB81BC8161E0C1
S21401E6009C01AD01220F331F441F551F0601F9015E
S21401E61040935B0060935700E89511243BC00D368C
S21401E620F9F429813A814B815C81203088E73807EB
S21401E63080E0480780E0580720F08FE30E9418F436
S21401E640AFC007B600FCFDCF85E0220F331F441F85
S21401E650551FF90140935B0080935700E895A0C0D1
S21401E660043401F507B600FCFDCF89819A81AB81A0
S21401E670BC8181BD892F9A2FAB2FBB2782BD0E94FB
S21401E68024F480BDFA9AF99AF999FECF89819A8184
S21401E690AB81BC810196A11DB11D89839A83AB8391
S21401E6A0BC837EC00436D1F489819A81AB81BC815A
S21401E6B081BD892F9A2FAB2FBB2782BDF89A80B5D3
S21401E6C00E9418F489819A81AB81BC810196A11DB3
S21401E6D0B11D89839A83AB83BC83C3CE0C3669F4A0
S21401E6E007B600FCFDCF0E9424F499E0E1E0F0E0DB
S21401E6F0082E90935700E89553C0023751F407B699
S21401E70000FCFDCF89E0E1E0F0E0809357008491C2
S21401E7108CC0063461F487B79927FC01E170F0706C
S21401E72080FDF9CF89E08093570084917EC00E3436
S21401E73051F407B600FCFDCF89E0E3E0F0E08093FA
S21401E7405700849172C0013551F407B600FCFDCF25
S21401E75089E0E2E0F0E080935700849166C00035DE
S21401E760F9F00C34E9F0053459F407B600FCFDCF96
S21401E77081E180935700E8958DE00E9418F448C027
S21401E780003711F483E551C0043711F480E04DC021
S21401E790802F8857823010F0043521F40E9424F42B
S21401E7A08DE043C00335A1F481E40E9418F486E5A8
S21401E7B00E9418F482E50E9418F482E40E9418F47C
S21401E7C08FE40E9418F48FE40E9418F484E52DC0AB
S21401E7D0063529F481E30E9418F485E326C0033741
S21401E7E041F481E00E9418F487EA0E9418F48EE151
S21401E7F01CC00F3FB1F48091000290910102009776
S21401E80051F407B600FCFDCF81E180935700E895EF
S21401E8100E94B1F026CE01979093010280930002E8
S21401E82003C00B3109F41DCE8FE30E9418F419CEF4
S21401E8308093CE008091C80086FFFCCF8091C800EF
S21401E84080648093C8000895809104029091050227
S21401E850892B09F0769880EA96E8A1E0B0E08093EB
S21401E860060290930702A0930802B093090220EAD9
S21401E87036E841E050E08091C80087FD19C0DA0112
S21401E880C9010197A109B1098F3F6FEF96076FEF95
S21401E890A6076FEFB60719F09C01AD01ECCF2093E8
S21401E8A006023093070240930802509309020DC0F6
S21401E8B02093060230930702409308025093090200
S21401E8C0211531054105510519F48FEF90E00895A2
S21401E8D0769A8091CE009927089560E071EE80E0E7
S21401E8E090E00E94ADF4909303028093020280931D
S21401E8F0CC001092CD0082E08093C80088E180931E
S21401E900C90086E08093CA00089591E09093810043
S21401E91080E28093B6009093B1004FEF8091B200F1
S21401E9208823E1F720918400309185008091B20020
S21401E9308038E1F78091840090918500415071F70D
S21401E940821B930B90930B0280930A021092810014
S21401E9501092B6001092B1000895EF92FF920F93B5
S21401E9601F937B018C010E9485F460910A027091CD
S21401E9700B028827992725E0660F771F881F991FA6
S21401E9802A95D1F7A80197010E94CEF4DA01C901B0
S21401E99001971F910F91FF90EF900895A1E21A2E13
S21401E9A0AA1BBB1BFD010DC0AA1FBB1FEE1FFF1F2D
S21401E9B0A217B307E407F50720F0A21BB30BE40B7D
S21401E9C0F50B661F771F881F991F1A9469F76095C4
S21401E9D07095809590959B01AC01BD01CF0108957E
S20601E9E0FFCF61
S20601E9E2140019
S80401E0001A
