S0110000626F6F746C6F616465722E68657850
S21401E0000C9490F00C94AFF00C94AFF00C94AFF02D
S21401E0100C94AFF00C94AFF00C94AFF00C94AFF0FE
S21401E0200C94AFF00C94AFF00C94AFF00C94AFF0EE
S21401E0300C94AFF00C94AFF00C94AFF00C94AFF0DE
S21401E0400C94AFF00C94AFF00C94AFF00C94AFF0CE
S21401E0500C94AFF00C94AFF00C94AFF00C94AFF0BE
S21401E0600C94AFF00C94AFF00C94AFF00C94AFF0AE
S21401E0700C94AFF00C94AFF00C94AFF00C94AFF09E
S21401E0800C94AFF00C94AFF00C94AFF00C94AFF08E
S21401E0900C94AFF00C94AFF00C94AFF00C94AFF07E
S21401E0A00C94AFF00C94AFF00C94AFF00C94AFF06E
S21401E0B00C94AFF00C94AFF00C94AFF00C94AFF05E
S21401E0C00C94AFF00C94AFF00C94AFF00C94AFF04E
S21401E0D00C94AFF00C94AFF00C94AFF00C94AFF03E
S21401E0E00C94AFF00C94AFF00C94AFF00C94AFF02E
S21401E0F00C94AFF00C94AFF00C94AFF00C94AFF01E
S21401E1000C94AFF00C94AFF00C94AFF00C94AFF00D
S21401E1100C94AFF00C94AFF00C94AFF00C94AFF0FD
S21401E12011241FBECFEFD1E4DEBFCDBF12E0A0E0C9
S21401E130B2E0E6EDF8EE01E00BBF02C007900D92EB
S21401E140A230B107D9F712E0A2E0B2E001C01D92F9
S21401E150AE30B107E1F70E9428F20C946AF40C94F1
S21401E16000F08EB187718EB940E050E01BC080E9A7
S21401E17091E00197F1F721503040C9F78EB1886ED2
S21401E1808EB9E8EEF3E0A0E9B1E0CD010197F1F731
S21401E1903197D9F78EB187718EB94F5F5F4F433094
S21401E1A0510519F028EE33E0E2CF0995089587313D
S21401E1B091051CF08EB1886E13C0803191052CF04C
S21401E1C08EB1806E8EB973980895089734F08EB12B
S21401E1D080668EB98EB1877703C0759A8EB18773C4
S21401E1E08EB908950F931F93CF93DF938C01EA01A5
S21401E1F06534C9F488819981AA81BB8181BD292FA3
S21401E2003A2F4B2F552722BD0196A11DB11D88839C
S21401E2109983AA83BB83F89A80B50E9488F301503C
S21401E220104041F73AC0663409F037C088819981B9
S21401E230AA81BB81880F991FAA1FBB1F8883998358
S21401E240AA83BB8388819981AA81BB81ABBFFC016C
S21401E25087910E9488F388819981AA81BB81019662
S21401E260A11DB11DABBFFC0187910E9488F3888177
S21401E2709981AA81BB810296A11DB11D88839983CC
S21401E280AA83BB8302501040E9F6B695A7959795E9
S21401E290879588839983AA83BB83DF91CF911F914A
S21401E2A00F9108954F925F926F927F928F929F92F5
S21401E2B0AF92BF92CF92DF92EF92FF920F931F938E
S21401E2C0CF93DF93CDB7DEB7C058D0400FB6F894E2
S21401E2D0DEBF0FBECDBF4C015A01653409F043C005
S21401E2E000E010E008C00E9494F3FE01E00FF11F69
S21401E2F081830F5F1F4F24016624772408151905B3
S21401E30091F707B600FCFDCFCC24DD247601BE01D3
S21401E3106F5F7F4F22C0F501208131814281538199
S21401E32021BDBB27A52F942F832F82BDFB01EC0DAA
S21401E330FD1D808180BDFA9AF99AF999FECF2F5F6B
S21401E3403F4F4F4F5F4FF501208331834283538305
S21401E3500894C11CD11CE11CF11CC414D504E604AC
S21401E360F704C9F658C0663409F058C0FA01C080EF
S21401E370D180E280F380CC0CDD1CEE1CFF1CC08239
S21401E380D182E282F3820E9494F3082F11270E9421
S21401E39094F3F501208131814281538161E099270F
S21401E3A0982F8827082B192B0801F90140935B0049
S21401E3B060935700E89511242E5F3F4F4F4F5F4FF4
S21401E3C0F50120833183428353838EEF9FEF880EBE
S21401E3D0991E81149104B9F6569547953795279558
S21401E3E0203090EF390790E0490790E05907B0F4E4
S21401E3F085E0F601E0925B0080935700E89507B64A
S21401E40000FCFDCF81E180935700E895F50120835C
S21401E4103183428353838DE090E002C08FE390E026
S21401E420C058DF4F0FB6F894DEBF0FBECDBFDF91E9
S21401E430CF911F910F91FF90EF90DF90CF90BF90FB
S21401E440AF909F908F907F906F905F904F900895C0
S21401E450CBEFD1E4DEBFCDBF88E10FB6F894809351
S21401E4606000109260000FBE6B9A6D9A6E9A6F9A5A
S21401E4706C9827980E94E7F3109205021092040206
S21401E4800E9494F3082F80910002909101020E944D
S21401E490D7F0013611F489E538C10134A1F40E94A0
S21401E4A094F3E82E0E9494F3FF24FE2CEE24992781
S21401E4B0E82AF92A0027F7FC0095102FE982FA824C
S21401E4C00B831C83D8C0053681F51EB880E88EB94B
S21401E4D080E090E0A0E0B0E023E007B600FCFDCFCE
S21401E4E0FC01A0935B0020935700E89580589F4F4E
S21401E4F0AF4FBF4F8F3F3FEE930730E0A30730E0AB
S21401E500B30758F389839A83AB83BC8380E29EE486
S21401E5100197F1F78DE00E9488F31EB881E090E044
S21401E5209093050280930402ABCF023641F489E54D
S21401E5300E9488F380E00E9488F380E8E6C00234F7
S21401E540E1F481E090E090930B0280930A020E942E
S21401E55094F3082F0E9494F3E82E0E9494F3112757
S21401E560102F0027FF24AE014F5F5F4F682FC801B1
S21401E5708E299F290E9452F1C8C00736D1F4109205
S21401E5800B0210920A020E9494F3082F0E9494F341
S21401E590E82E0E9494F31127102F0027FF24AE01C6
S21401E5A04F5F5F4F682FC8018E299F290E94F2F0A6
S21401E5B067CF0C3669F407B600FCFDCF0E9494F3D2
S21401E5C099E0E1E0F0E0082E90935700E89553C0FB
S21401E5D0023751F407B600FCFDCF89E0E1E0F0E038
S21401E5E080935700849191C0063461F487B79927C8
S21401E5F0FC01E170F07080FDF9CF89E0809357004F
S21401E600849183C00E3451F407B600FCFDCF89E037
S21401E610E3E0F0E080935700849177C0013551F430
S21401E62007B600FCFDCF89E0E2E0F0E080935700FA
S21401E63084916BC00035F9F00C34E9F0053459F4D7
S21401E64007B600FCFDCF81E180935700E8958DE089
S21401E6500E9488F348C0003711F483E556C004379A
S21401E66011F480E052C0802F8857823010F00435B4
S21401E67021F40E9494F38DE048C00335A1F481E4AF
S21401E6800E9488F386E50E9488F382E50E9488F35B
S21401E69082E40E9488F38FE40E9488F38FE40E944C
S21401E6A088F384E532C0063529F481E30E9488F3B5
S21401E6B085E32BC0033741F481E00E9488F387EAA3
S21401E6C00E9488F38EE121C00F3FD9F480910002A9
S21401E6D090910102009751F407B600FCFDCF81E14D
S21401E6E080935700E8950E94B1F0CACE01979093A7
S21401E6F001028093000283709070892B09F0C0CECE
S21401E70003C00B3109F4BCCE8FE30E9488F3B8CE68
S21401E7108093CE008091C80086FFFCCF8091C80010
S21401E72080648093C8000895809104029091050248
S21401E730892B59F080910A0290910B02892B11F0D6
S21401E74080E401C080E28EB9739880E593ECA0E086
S21401E750B0E08093060290930702A0930802B0935C
S21401E760090220E533EC40E050E08091C80087FDC7
S21401E77019C0DA01C9010197A109B1098F3F6FEFED
S21401E78096076FEFA6076FEFB60719F09C01AD016C
S21401E790ECCF209306023093070240930802509371
S21401E7A009020DC020930602309307024093080227
S21401E7B050930902211531054105510519F48FEFD2
S21401E7C090E00895739A8091CE009927089560E0AD
S21401E7D071EE80E090E00E9427F49093030280930C
S21401E7E002028093CC001092CD0082E08093C80094
S21401E7F088E18093C90086E08093CA00089591E07D
S21401E8009093810080E28093B6009093B1004FEF21
S21401E8108091B2008823E1F7209184003091850031
S21401E8208091B2008034E1F7809184009091850058
S21401E830415071F7821B930B90930D0280930C024B
S21401E840109281001092B6001092B1000895EF92D6
S21401E850FF920F931F937B018C010E94FFF360913F
S21401E8600C0270910D028827992726E0660F771F04
S21401E870881F991F2A95D1F7A80197010E9448F48D
S21401E880DA01C90101971F910F91FF90EF9008954A
S21401E890A1E21A2EAA1BBB1BFD010DC0AA1FBB1F9E
S21401E8A0EE1FFF1FA217B307E407F50720F0A21B10
S21401E8B0B30BE40BF50B661F771F881F991F1A947D
S21401E8C069F760957095809590959B01AC01BD01A7
S20A01E8D0CF010895FFCF01
S20601E8D61E001C
S80401E0001A
