S0110000626F6F746C6F616465722E68657850
S21401E0000C9490F00C94AFF00C94AFF00C94AFF02D
S21401E0100C94AFF00C94AFF00C94AFF00C94AFF0FE
S21401E0200C94AFF00C94AFF00C94AFF00C94AFF0EE
S21401E0300C94AFF00C94AFF00C94AFF00C94AFF0DE
S21401E0400C94AFF00C94AFF00C94AFF00C94AFF0CE
S21401E0500C94AFF00C94AFF00C94AFF00C94AFF0BE
S21401E0600C94AFF00C94AFF00C94AFF00C94AFF0AE
S21401E0700C94AFF00C94AFF00C94AFF00C94AFF09E
S21401E0800C94AFF00C94AFF00C94AFF00C94AFF08E
S21401E0900C94AFF00C94AFF00C94AFF00C94AFF07E
S21401E0A00C94AFF00C94AFF00C94AFF00C94AFF06E
S21401E0B00C94AFF00C94AFF00C94AFF00C94AFF05E
S21401E0C00C94AFF00C94AFF00C94AFF00C94AFF04E
S21401E0D00C94AFF00C94AFF00C94AFF00C94AFF03E
S21401E0E00C94AFF00C94AFF00C94AFF00C94AFF02E
S21401E0F00C94AFF00C94AFF00C94AFF00C94AFF01E
S21401E1000C94AFF00C94AFF00C94AFF00C94AFF00D
S21401E1100C94AFF00C94AFF00C94AFF00C94AFF0FD
S21401E12011241FBECFEFD1E4DEBFCDBF12E0A0E0C9
S21401E130B2E0E6ECF9EE01E00BBF02C007900D92EB
S21401E140A230B107D9F712E0A2E0B2E001C01D92F9
S21401E150AE30B107E1F70E9451F20C94E2F40C9450
S21401E16000F00F931F93CF93DF938C01EA01653480
S21401E170C9F488819981AA81BB8181BD292F3A2F53
S21401E1804B2F552722BD0196A11DB11D888399836A
S21401E190AA83BB83F89A80B50E94A3F3015010406E
S21401E1A041F73AC0663409F037C088819981AA815F
S21401E1B0BB81880F991FAA1FBB1F88839983AA83D7
S21401E1C0BB8388819981AA81BB81ABBFFC01879102
S21401E1D00E94A3F388819981AA81BB810196A11D22
S21401E1E0B11DABBFFC0187910E94A3F38881998181
S21401E1F0AA81BB810296A11DB11D88839983AA833A
S21401E200BB8302501040E9F6B695A795979587957A
S21401E21088839983AA83BB83DF91CF911F910F9146
S21401E22008954F925F926F927F928F929F92AF92D4
S21401E230BF92CF92DF92EF92FF920F931F93CF93ED
S21401E240DF93CDB7DEB7C058D0400FB6F894DEBF27
S21401E2500FBECDBF4C015A01653409F043C000E042
S21401E26010E008C00E94AFF3FE01E00FF11F8183AA
S21401E2700F5F1F4F2401662477240815190591F7AF
S21401E28007B600FCFDCFCC24DD247601BE016F5F0E
S21401E2907F4F22C0F501208131814281538121BD0A
S21401E2A0BB27A52F942F832F82BDFB01EC0DFD1DEF
S21401E2B0808180BDFA9AF99AF999FECF2F5F3F4F78
S21401E2C04F4F5F4FF5012083318342835383089478
S21401E2D0C11CD11CE11CF11CC414D504E604F704CE
S21401E2E0C9F658C0663409F058C0FA01C080D1801A
S21401E2F0E280F380CC0CDD1CEE1CFF1CC082D182B8
S21401E300E282F3820E94AFF3082F11270E94AFF337
S21401E310F501208131814281538161E09927982F4F
S21401E3208827082B192B0801F90140935B0060939D
S21401E3305700E89511242E5F3F4F4F4F5F4FF50171
S21401E34020833183428353838EEF9FEF880E991E7D
S21401E35081149104B9F6569547953795279520303F
S21401E36090EF390790E0490790E05907B0F485E04F
S21401E370F601E0925B0080935700E89507B600FC33
S21401E380FDCF81E180935700E895F5012083318325
S21401E390428353838DE090E002C08FE390E0C05843
S21401E3A0DF4F0FB6F894DEBF0FBECDBFDF91CF9122
S21401E3B01F910F91FF90EF90DF90CF90BF90AF909D
S21401E3C09F908F907F906F905F904F9008958331CC
S21401E3D0910514F08FE00AC08D30910514F087E0A6
S21401E3E005C0079714F083E001C081E00E94AAF4FB
S21401E3F00895CF93DF938FEF0E94AAF4C0E0D0E098
S21401E40026C080E991E00197F1F721503040C9F725
S21401E41080E00E94AAF428EE33E0E0E9F1E0CF01C3
S21401E4200197F1F721503040D1F78FEF0E94AAF4FF
S21401E4302196C330D10559F428EE33E0E0E9F1E046
S21401E440CF010197F1F721503040D1F703C028EEF4
S21401E45033E0D7CF80E00E94AAF4E0E0F0E009952F
S21401E460DF91CF91089514BE88E10FB6F89480939A
S21401E4706000109260000FBEE1E6F0E080E8808365
S21401E4808FE080836C9A6D9A6E9A6F9A0E9482F4DE
S21401E4900E9488F40E9406F410920502109204026B
S21401E4A00895CBEFD1E4DEBFCDBF0E9433F20E94C8
S21401E4B0AFF3082F80910002909101020E94E7F1CC
S21401E4C0013611F489E53CC10134A1F40E94AFF391
S21401E4D0E82E0E94AFF3FF24FE2CEE249927E82AAB
S21401E4E0F92A0027F7FC0095102FE982FA820B83A0
S21401E4F01C83DCC00536A1F580E00E94AAF40E94C8
S21401E50088F480E090E0A0E0B0E023E007B600FCED
S21401E510FDCFFC01A0935B0020935700E89580583F
S21401E5209F4FAF4FBF4F8F3F3FEE930730E0A3079C
S21401E53030E0B30758F389839A83AB83BC8380E2C8
S21401E5409EE40197F1F78DE00E94A3F380E00E941C
S21401E550AAF481E090E09093050280930402A7CF8D
S21401E560023641F489E50E94A3F380E00E94A3F3FA
S21401E57080E8E6C00234E1F481E090E090930B027B
S21401E58080930A020E94AFF3082F0E94AFF3E82E91
S21401E5900E94AFF31127102F0027FF24AE014F5F13
S21401E5A05F4F682FC8018E299F290E9411F1C8C0AC
S21401E5B00736D1F410920B0210920A020E94AFF3B2
S21401E5C0082F0E94AFF3E82E0E94AFF31127102FF9
S21401E5D00027FF24AE014F5F5F4F682FC8018E29C9
S21401E5E09F290E94B1F063CF0C3669F407B600FC90
S21401E5F0FDCF0E94AFF399E0E1E0F0E0082E9093A2
S21401E6005700E89553C0023751F407B600FCFDCF1A
S21401E61089E0E1E0F0E080935700849191C00634F0
S21401E62061F487B79927FC01E170F07080FDF9CF9E
S21401E63089E080935700849183C00E3451F407B665
S21401E64000FCFDCF89E0E3E0F0E080935700849181
S21401E65077C0013551F407B600FCFDCF89E0E2E052
S21401E660F0E08093570084916BC00035F9F00C34CC
S21401E670E9F0053459F407B600FCFDCF81E180933B
S21401E6805700E8958DE00E94A3F348C0003711F4C7
S21401E69083E556C0043711F480E052C0802F8857B6
S21401E6A0823010F0043521F40E94AFF38DE048C0AB
S21401E6B00335A1F481E40E94A3F386E50E94A3F347
S21401E6C082E50E94A3F382E40E94A3F38FE40E94F2
S21401E6D0A3F38FE40E94A3F384E532C0063529F440
S21401E6E081E30E94A3F385E32BC0033741F481E065
S21401E6F00E94A3F387EA0E94A3F38EE121C00F3F95
S21401E700D9F48091000290910102009751F407B666
S21401E71000FCFDCF81E180935700E8950E94F9F156
S21401E720C6CE019790930102809300028370907089
S21401E730892B09F0BCCE03C00B3109F4B8CE8FE3A8
S21401E7400E94A3F3B4CE8093CE008091C80086FFCA
S21401E750FCCF8091C80080648093C80008958091A2
S21401E760040290910502892B71F080E00E94AAF4C0
S21401E77080910A0290910B02892B19F00E9486F46F
S21401E78002C00E9484F480E898E3A1E0B0E08093A0
S21401E790060290930702A0930802B093090220E8AC
S21401E7A038E341E050E08091C80087FD19C0DA01E6
S21401E7B0C9010197A109B1098F3F6FEF96076FEF66
S21401E7C0A6076FEFB60719F09C01AD01ECCF2093B9
S21401E7D006023093070240930802509309020DC0C7
S21401E7E020930602309307024093080250930902D1
S21401E7F0211531054105510519F48FEF90E0089573
S21401E8000E9482F48091CE009927089560E072EC10
S21401E81081E090E00E9461F49093030280930202EB
S21401E8208093CC001092CD0082E08093C80088E1EE
S21401E8308093C90086E08093CA00089591E0909382
S21401E840810080E28093B6009093B100AEEFEFEFC7
S21401E850FFEFB0E060E070E08091B2008823E1F75E
S21401E86040918400509185008091B2008034E1F798
S21401E8702091840030918500241B350BE217F307A5
S21401E88008F4F9012617370708F4B901CB018E1BE6
S21401E8909F0B029730F0B0E0EFEFFFEF60E070E023
S21401E8A003C0BF5FB23310F4A150B0F630930D022F
S21401E8B020930C02109281001092B6001092B100C3
S21401E8C00895EF92FF920F931F937B018C010E9494
S21401E8D01EF460910C0270910D028827992726E09C
S21401E8E016950795F794E7942A95D1F7A80197010D
S21401E8F00E94C0F4DA01C90101971F910F91FF90A0
S21401E900EF900895749A0895759A0895769A0895E1
S21401E910779A089574980895759808957698089545
S21401E92077980895779B02C077980895779A089507
S21401E930749B02C074980895749A0895759B02C0DA
S21401E94075980895759A0895769B02C076980895ED
S21401E950769A0895992780FF02C0749A01C0749828
S21401E96081FF02C0759A01C0759882FF02C0769A2F
S21401E97001C0769883FF02C0779A08957798089524
S21401E980A1E21A2EAA1BBB1BFD010DC0AA1FBB1FAD
S21401E990EE1FFF1FA217B307E407F50720F0A21B1F
S21401E9A0B30BE40BF50B661F771F881F991F1A948C
S21401E9B069F760957095809590959B01AC01BD01B6
S20A01E9C0CF010895FFCF10
S20601E9C6180031
S80401E0001A
